:020000040800F2
:1000000038D30020450100084D0100084F010008C9
:1000100051010008530100085501000800000000CC
:100020000000000000000000000000005701000870
:100030005901000800000000AB0100085D01000844
:1000400081A50008C19F000805A300085DA1000864
:10005000A1880008F5A000088588000889880008A4
:100060008F8800085F010008918800085F01000880
:100070005F0100085F0100085F0100085F010008E0
:100080005F0100085F0100085F0100085F010008D0
:100090005F0100085F0100085F0100089388000805
:1000A0005F0100085F0100085F01000807A3000866
:1000B00055A3000879A300087BA30008DD8C000885
:1000C000DB8C0008E18C0008DF8C00085FA10008D1
:1000D00061A1000813A5000815A5000817A50008D0
:1000E0008788000855A1000821A500085F010008C5
:1000F0005F0100085F0100085F0100085F01000860
:100100005F0100085F0100085F0100085F0100084F
:100110005F0100085F0100085F0100085F0100083F
:100120005F0100085F0100085F0100085F0100082F
:10013000DFF80CD007F0AAFF00480047CDDD00082B
:1001400038D300200648804706480047FEE7FEE710
:10015000FEE7FEE7FEE7FEE7FEE7FEE7FEE7FEE777
:1001600015A2000831010008EFF3108072B6704745
:1001700080F3108870471D484FF0FF010170002088
:1001800080F309881A48012101701A484FF0805104
:10019000016062B6FEE717484FF08051016070477A
:1001A00014484FF080510160704772B6EFF3098038
:1001B00028B1203880E8F00F0F490968086000B5C1
:1001C0000E4880475DF804EB0D480E490A7802702E
:1001D00009480D490A680260106890E8F00F203065
:1001E00080F309884EF0040E62B6704722ED00E0FD
:1001F0000B00002004ED00E024000020099C000812
:1002000008000020090000202C000020024B598427
:100210009A8403F00FBD0000A89400202DE9FC4152
:100220000F4F0346386C4518796C8418CE18ADF81A
:100230000050ADF80440ADF80260ADF806606846C5
:1002400002F0ECFD07E0B86C224631460368284610
:10025000984702F0BCFD0028F5D1BDE8FC81000004
:10026000A89400207CB50E4B1C6C0444586CADF86F
:10027000004046188518ADF80440ADF80260ADF8AE
:100280000650684602F0CAFD06E02A46314620467E
:1002900004F02EFC02F09BFD0028F6D17CBD00008E
:1002A000A894002004F002BC04F00CBC024A91693E
:1002B00000B1906108467047A894002030B403460E
:1002C000604C0A46401C07D0501C05D06068411C99
:1002D00002D0A1684D1C02D14FF0FF300146C4E9A5
:1002E000013230BC03F08EBF5648C0687047554895
:1002F000006970475348AA212430016040F60A7112
:1003000041608160C821C16070472DE9F84F1F46E8
:100310000A9D9046894604004FF0000C0FD040F231
:100320003F16781B00D54042142805DBB9EB0800C6
:1003300000D54042142805DA0120BDE8F88F40F2CC
:10034000DF16EEE7424649466046009500F06FF83A
:10035000DFF8F0A03B460AF1240A42464AF834008E
:1003600049463046009500F062F80AEBC401486047
:100370000020E2E7334B10B5243353F8304003EB51
:10038000C0000C604068106010BD70B52D4D2D4C44
:100390002435D5E90010814202DAC4E9051001E0F4
:1003A000C4E90501D5E90210814202DAC4E9071067
:1003B00001E0C4E907012078B8B108F053FBE06020
:1003C00008F04EFB0C3494E807000C3C904208DB2C
:1003D000A269904205DCE269914202DB226A914205
:1003E0000BDD4FF0FF3001461CE008F0CFFB206131
:1003F00008F037FB2078401C17E02A68801A00EBD1
:100400004013C3EB40206B689A1A90FBF2F3AA6882
:10041000881AC0EB801101EB0020E968891A90FB73
:10042000F1F11846FFF74AFF0020207070BD10B5AB
:10043000401A029CE41A4443501A94FBF0F018440A
:1004400010BD00006006002001460078020616D5A7
:100450000622B2EB501F03D1C006400D49780BE0D5
:100460000E22B2EB101F0BD14A780007000C02F0ED
:100470003F02897840EA821001F03F01084370474B
:1004800001207047007801060BD50621B1EB501F03
:1004900001D1022070470E21B1EB101F01D10320C2
:1004A000704701207047C10A01D003207047C0097E
:1004B00001D0022070470120704770B504460D46F8
:1004C0000846FFF7F0FF012812D005F03F0141F088
:1004D000800102280ED0032809D1E02242EA153219
:1004E0002270C5F3851242F080026270A17070BD67
:1004F000257070BDC02242EA95122270617070BDF5
:1005000002490148C8617047B0FA0008A894002069
:100510002DE9FC4107461C4615460E46042004F012
:1005200053F980462D48016C406C0F4406440D443D
:100530000444ADF80070ADF80450ADF80260ADF8B9
:100540000640684602F06AFC07E023462A46314628
:10055000384604F07CF902F03AFC0028F5D1404618
:1005600004F032F9BDE8FC8110B50021084603F023
:100570003BFD40F6FF725042BDE810401346014675
:10058000C6E770B516492E20087008F0A5FB134C7D
:10059000251D201D256104F0CFFA1248A0641248E1
:1005A0002561A0610120207502F060FEA087032074
:1005B00084F84C006FF0704020636063002004F00A
:1005C00075FA6FF07F4004F07DFA0848E06104F0AE
:1005D00050FA044602F0CAFD204670BDA8940020DF
:1005E00094060020C0FA0008806F0108305D010801
:1005F0002DE9F043C78C044687B04FF00009C7F3DC
:100600000025084604F0AAFE08B12E4600E00226A6
:10061000206CFFF74BFEB4F9480010B103F025FF42
:100620008146684603F0CEFCDDE90001CDE9020118
:1006300045B3002004F046FABDF90630BDF90420A8
:10064000BDF90010BDF9020003F082F8012202A9F1
:10065000084603F0F8F904EB8608D8F8280004F0FF
:1006600025FAD8F8340004F02DFA02A805F0EAF8CB
:10067000FFF77AFF022E0DDAB4F84C0040B13DB11D
:1006800001200BE0206A00688047206A4269DEE7AB
:10069000002003E0B4F84E0000B1022004EB40005B
:1006A0000022B0F94A00114604F075FADDE90201B2
:1006B000CDE9040125B10122114604A803F002FD91
:1006C000022003F097FDB4F9442004A9484603F042
:1006D000E7FBF80706D0002004F0F4F90221684691
:1006E00003F0E4FB002005F0ADF807B0BDE8F083AF
:1006F00070B5B0F904600546304603F0B6FE044616
:100700002946304604F000FC002840D028680B2819
:100710002CD00C2802D00F2834D122E0A968304612
:10072000C9B1097A0029E18C4FEAC1510FD00029E3
:100730002DDB35464FF4807104F0BCFB217F880728
:1007400025D52846BDE87040012104F0A6BF002948
:100750001DDA022200E003222146BDE8704000F0CD
:1007600092B831462046BDE8704041E704F14800A8
:1007700003F0C8FE04F14A0003F0C4FE04F14C008B
:1007800003F0C0FE2846BDE8704002F098BC70BD82
:100790002DE9FF410C46DDE90AC13026AFF2AF0773
:1007A0000D9D89B2CDF800C00396CDE90117214611
:1007B00002F0D1F904000CD003F057FE06461022D7
:1007C000294604F09BFB20223B4906F1280007F054
:1007D000E2F804B02046BDE8F08170B50D46040093
:1007E0000CD003F042FE2946483003F039F90028C6
:1007F00004D02046BDE8704002F0ABB970BD70B5C2
:100800000D46040007D003F030FE05642046BDE825
:10081000704002F09EB970BD70B516460C460500DA
:100820000BD0022C09D803F020FE00EB8400866276
:100830002846BDE8704002F08CB970BD70B5164610
:100840000C4605000BD0022C09D803F00EFE00EB7D
:10085000840046632846BDE8704002F07AB970BD56
:1008600004F00FBB4FF480720029114601D004F050
:1008700021BB04F031BB00294FF0100101D004F07E
:1008800019BB04F029BB70B50C46154606464FF45B
:10089000807104F021FB207F800703D52946304674
:1008A00004F0FBFE022D05D1B4F92400BDE8704030
:1008B00003F01DBC70BD0000B006002070B51646E8
:1008C0000C46054619463046049A04F098F902464B
:1008D00021462846BDE8704004F046B908B500231B
:1008E0000093FFF7EBFF08BD7FB516460446B0F94D
:1008F0000820408A1D460023CDE90013CDE90202FD
:10090000B4F90C00B4F910304119B4F90A00B4F983
:100910000E203044FFF73CFF05466168FFF75DFF9E
:1009200004B0284670BD00003D48006870473C4A4E
:1009300001461068116070470EB5002201922A220C
:1009400002910092694601F07CFF0EBD0EB50021B8
:10095000019102912A210091694601F072FF0298EB
:100960000EBD2DE9F8431F460446DDE90803009259
:100970000D460246266839462046B047074604F031
:10098000A9FD8046618A384604F094FA384604F09E
:1009900079FF404604F076FF002609E0009654F8FF
:1009A00018CF00231A4641462046E04704F06AFF6C
:1009B0006D1E002DF2DC384604F0D0FE1E214046AC
:1009C00004F073FE3846BDE8F88370B50C46054662
:1009D000FFF7BCFF10B10121C0E900142846BDE8B3
:1009E000704001F057BF1CB500210091019169468C
:1009F000FFF7A2FF04E003F0B5FA08B908F05AF9CE
:100A000000980028F7D001981CBD7CB5DDE90645AB
:100A1000CDE90045FFF7A5FFBDE87C40E3E7000016
:100A2000D006002070B50D46044603F01EFDB0F858
:100A30005C104FEA017225B1002A0DDB41F008017C
:100A400003E0002A08DA21F00801A0F85C10204633
:100A5000BDE8704002F07DB870BD10B501460020C1
:100A600091F82620920607D5B1F94000002803D15D
:100A7000886A03F0ACFA801C10BD2DE9F05F4FF0DE
:100A800000080C460546C146B0F9426004F095FDE9
:100A90008346284604F098FD824695F82600800695
:100AA00001D5B5F944902846FFF7D7FF0746B5F9B9
:100AB0004E0010B104F09BFD80462780A4F8028010
:100AC000ABEB060006EB0901A680401ECA19208187
:100AD00002EB0801E180AAEB0601491E6181A681B3
:100AE0002082F019E681401E6082B5F9180022E0EC
:100AF00003F0BBFCB0F90010B5F90020B0F90430E8
:100B0000891A9A1AB0F90230B5F90270DB1BB342A8
:100B10000FD1037F1B0606D5B4F910208A4208DBEB
:100B2000491E218205E0B4F90C10914201DC521CEF
:100B3000A281B0F91A000028DAD1BDE8F09F2DE9B2
:100B4000F04F8BB0044602F0A3F806464FF0000BBE
:100B500004F041FD0546304604F049FD0646B4F96F
:100B6000428069462046FFF788FF94F85C00C0F396
:100B7000C007B4F9500010B103F077FC8346BDF80C
:100B80000400ADF81400BDF80800ADF81800BDF879
:100B90000E00ADF81600401CADF80E00BDF80C00BC
:100BA000BDF81210401CADF80C00BDF81000ADF8F7
:100BB0001A10401EADF81000A06AFFF777FBB4F9D9
:100BC0005A3003A907AA5846099102F09BFEBDF9C5
:100BD0000010002001EB080A02F020F9002844D0A0
:100BE000AAF1010904EB8707F86A03F05FFF786B4D
:100BF00003F068FF07AB05A95846099A04F01CFBEF
:100C0000FE4803F05FFF0021A8F101036A1E0846B9
:100C100003F0B4F9BDF904200021731E0846521EEA
:100C200003F0ACF9BDF90800731E6A1E0021401CD8
:100C300003F0A4F9BDF90A10731E6A1E0020491CB6
:100C400003F09CF9B4F944106A1E01EB0903514604
:100C5000002003F093F9B4F94200022801DB04F00C
:100C6000D8FA02F0B4F80028BED10BB0BDE8F08F7E
:100C7000002800D0D6E670472DE9F041B0F90460B5
:100C8000044688B0304603F0F0FB0546D4F80880EF
:100C9000476E05E079682046884700281ED13F68E6
:100CA000002FF7D12068172848D00CDC0D2878D009
:100CB00004DC0B2873D00C2818D118E00F2812D0B0
:100CC000142813D12FE01F284AD0212876D02628B7
:100CD00037D02A280AD1A06818B1286608B0BDE824
:100CE000F081286E58E02846FFF729FF85E0A468C8
:100CF000002CF3D0207A0028F0D095F85C00000793
:100D000002D4304602F0F4FA304604F055FB95F870
:100D10005C00C006E2D5BA482146B0F90020304652
:100D200004F0D4FCDAE769462846FFF7A6FE0199ED
:100D3000C8F800100299C8F80410CFE7B5F94C00C4
:100D40002AE0A0680228C9D1ADF81A60A06807900F
:100D500027200590B4F9060005A901F072FDBDE752
:100D6000A068012804D000213046FFF781FFB5E7D5
:100D7000B5F95E0004F06CFC20B1B5F95E0002F03C
:100D8000B7FA04E035F94C0F04F0E8FC6882012161
:100D90003046FFF76DFF0020A0609FE701E028E0EC
:100DA0000CE095F85C00000727D4A0688068F8B1D3
:100DB000007AE8B1304602F09BFA1EE0A768BFB1A6
:100DC000B7F90200314604F0C4FA20B101213046DF
:100DD000FFF728FE11E000213046FFF723FEB7F9A8
:100DE0000000314604F0A4FA10B13888A5F85E007E
:100DF00003E005F1500003F085FB2146304604F086
:100E000083F800288ED0204602F059F966E72DE9D4
:100E1000FE43B0F904700446384604F0B8FB80463F
:100E200003F023FB0546866C2068172857D008DCA2
:100E30000E283CD00F280BD0142850D015283DD1B7
:100E40004DE01F2819D020282AD0222836D144E08E
:100E5000E86B6FF07041884203D003F027FEFFF784
:100E600083FB002E07D094E807008DE80700ADF85B
:100E700004706846B047BDE8FE83A0680028FAD039
:100E8000B5F95E0020B1B84202D002F031FA04E0B8
:100E9000384604F063FCA5F85E000020A060EAE795
:100EA00003B021464046BDE8F04304F02DB8A068E9
:100EB0004168002902DD0068092808D07EB1A4F845
:100EC000048003B02046B446BDE8F043604738468E
:100ED00004F044FCA5F85E00CDE7E86BDEE72046B1
:100EE000BDE8FE4302F0EBB810B50446B0F84C0084
:100EF00086B018B9B4F84E00002829D069462046BB
:100F0000FFF7BBFDB4F94C00A8B1BDF90620BDF94F
:100F1000041004F09FFBBDF90A00BDF90610421A47
:100F2000BDF90800BDF90410521C411AB4F94C0077
:100F3000491C04F06CFCB4F94E00002808D0BDF93F
:100F40000610BDF902208A1ABDF9041004F082FBD4
:100F500006B010BD70B50D4604000CD003F085FA44
:100F60002946503002F07CFD002804D02046BDE820
:100F7000704001F0EEBD70BD2DE9F04F89B013ADAA
:100F8000129E95E8100D44F480574825DFF874C090
:100F9000DDF85C90BCB200960395CDE9014C01F000
:100FA000DAFD060048D003F060FA044630225146CC
:100FB00003F0A4FF12492022091D04F1280006F0C5
:100FC000EAFC0025A4F85A50C4F84890A4F85C80C4
:100FD000A4F85E50A4F84E5004A920466566FFF7B9
:100FE0004CFD094841F2827100960395CDE901104C
:100FF000BDF91A00BDF91610431A07E0AAAAAA0003
:10100000D4060020790C00080F0E0008BDF9182046
:10101000BDF914005B1C121A521C01F09CFDA4F8CF
:101020004C0042F20400074202D1304604F03BFC7F
:1010300059463046FFF78EFF304609B016E670B5C8
:101040000C4605000CD003F010FAB0F95A10A1427A
:1010500006D0A0F85A402846BDE8704001F079BD9E
:1010600070BD10B50C4600280AD003F0FEF930F828
:101070005C1F14B141F0100101E021F0100101806A
:1010800010BDF0B587B015461C46428A0DF1080C1C
:101090000C9FB0F9083046688CE8CC000022CDE9FE
:1010A0000012B0F90C10B0F91030B0F90E20B0F900
:1010B0000A0021442844FFF75FFF07B0F0BD2DE987
:1010C000F0410D465FEA000843D003F0CEF9044634
:1010D000C08C014615B140F0200701E020F0200748
:1010E000B94236D0E7842046FFF7FEFEB4F9185027
:1010F0001CE0284603F0B9F90646B0F90200B4F93D
:101100000210401AB4F9421081420DD1B4F94C00DA
:10111000A84209D094F826008006284602D504F09B
:10112000B1FB01E004F080FAB6F91A50002DE0D1CD
:1011300094F85C00400607D5B806404602D504F096
:10114000A1FB01E004F070FA4046BDE8F04101F077
:1011500000BDBDE8F08100002DE9F04105460C46D8
:101160000026B0F9380003F080F90746E98F03F054
:1011700088F8C219944204D2111B204603F092F859
:1011800006463046BDE8F081F7B50D4601F0EDF8B2
:10119000064695F87400800632D528460299FFF776
:1011A000DBFF074695F878203146029802F078FC7C
:1011B0000446B84222DB95F8780068B13C462146E7
:1011C000029801F0E7F805463946029803F059F80D
:1011D0000299084402900CE0029802F0E1FB0446F8
:1011E0000CE02A2003F02FFA05440CB1B54205DCCF
:1011F000641C02A803F032F80028F2D12046FEBD9C
:1012000095F878203146029802F04AFCE7E72DE98C
:10121000F04115460C46074601F0A7F8014694F840
:101220007400800615D529462046FFF795FF06462F
:101230002A4621463846FFF7A7FF044601462846BE
:1012400003F01FF8B4429DDA295C0A299AD1401CA8
:1012500098E794F878202846BDE8F04102F083BC76
:1012600010B50C4690F87410890603D52146FFF797
:1012700073FF30B1204602F0E5FFBDE8104003F0F7
:10128000E2B92A20F9E72DE9F041804614460D46DF
:10129000B1F9380003F0E9F8B5F852100746A0B2EA
:1012A000A14218D008D2B5F85020A5F8520002EBA0
:1012B0000706A4EB010409E03E46A5F8520005E04C
:1012C000324629464046FFF7A2FF0644641EF7D285
:1012D000F01BA5F85000B5F85000384452E72DE94E
:1012E000F04788468146144600251946104602F00C
:1012F000C8FFB8F85010271881421EDA0C44B8F81D
:1013000052501AE0224641464846FFF73DFF01464B
:10131000204602F0B6FF0619224641464846FFF72E
:1013200076FF0444B74207D8B7420AD1A64208D193
:10133000207830B16D1C04E06D1C207808B1A74204
:10134000E0D82846BDE8F0872DE9F047054691F83A
:101350007500994692460C4600072ED500273E465A
:10136000206FFEF7A3FFB4F93800C8B103F07DF891
:10137000B4F84A10B4F8467001EB00083A4621462A
:101380002846FFF780FF054608E029462046FFF77C
:1013900067FF0644284602F051FF05444545F4D353
:1013A000A4F84C6003F016F97843A4F84E0094F8C2
:1013B000750020F0080084F8750034F84C1FCAF856
:1013C00000106188C9F80010BCE77CB50C460546E2
:1013D0006B4601AAFFF7B8FF206F02F0FCFD0099F1
:1013E000002391FBF0F11A4604F15800009104F03B
:1013F00019F81E231A4604F16400019904F012F84A
:10140000284601F018F87CBD2DE9F047814691F897
:1014100075000C46400736D50020A4F84200208F06
:1014200058B3206FFEF742FFB4F9380003F01DF8FF
:101430000646324621464846FFF7A6FE804600256E
:10144000374608E039462046FFF70AFF054438468C
:1014500002F0F4FE0744B8F10108F3D2B4F84200F8
:10146000A84201DAA4F84250324621464846FFF726
:10147000CEFE064430780028DBD194F8750020F0C9
:10148000040084F87500B4F842005BE72DE9F041F0
:10149000804691F875000C46800729D5B4F93800CC
:1014A0000026E0B102F0E1FF0546206FFEF7FEFEE8
:1014B0002A4621464046FFF767FE0146284602F0CD
:1014C000E0FE284402F0BEFE070000D0761C2A464B
:1014D00021464046FFF79BFE0544002FE8D1761CCD
:1014E000A4F8406094F8750020F0020084F87500BC
:1014F000B4F8400046E670B5054602F0B6FF044673
:1015000001462846FFF7C2FFA0652146284600F0A5
:101510009FFF206621462846FFF776FF606621463A
:10152000284600F022FFE06621462846BDE87040CC
:101530004BE770B5064691F874000C4600071DD5C0
:10154000304600F085FF054621463046FFF79EFFF6
:10155000854201DA012500E000252946304604F0E5
:1015600055F9A8420AD094F8750040F00E0084F8AE
:1015700075002046BDE8704000F055BF70BD70B5E5
:10158000054602F072FF064601462846FFF7D1FFE6
:1015900096F87400C00617D53146284600F0E5FEDF
:1015A000044631462846FFF72FFF844201DA012422
:1015B00000E000242146284604F027F9A04203D089
:1015C00031462846FFF7B5FF2846BDE8704092E750
:1015D0002DE9FF5FB1F93800DDF838B099461446BF
:1015E0000D46002852D002F040FF8046284600F009
:1015F000A7FEE98FA14200DD0C46844200DD0446CF
:101600002146404602F03DFE074623464246294613
:101610000098FFF764FE064608EB070A32462946A3
:101620000098FFF730FE504525D9B5F84810A14283
:101630000FDB721E29460098FFF725FE044602467E
:1016400029460098FFF7A0FD0146204602F019FE4A
:101650002044A0EB0801404602F024FE0446014667
:10166000404602F00EFE07462346424629460098B1
:10167000FFF735FE0646B9F1000F01D0C9F800703A
:10168000BBF1000F01D0CBF80060204604B0BDE8EC
:10169000F09F3EB5054602A800900C4601AB2846D7
:1016A000FFF796FFB4F84810814211D00199A4F8D1
:1016B0004A10A4F848000298A4F8460094F875006F
:1016C000214640F0080084F875002846FFF77DFEAB
:1016D0003EBD2DE9F0410E4607004FF000051CD03D
:1016E00002F0C3FE90F878500446B54215D084F855
:1016F0007860593400F097FE207F40F00600207794
:10170000384600F0BFFE34F8112D4FF6FF7024F874
:10171000480921463846FFF7BCFF284632E52DE947
:10172000F05F5FEA02081C460F4683464FF0000256
:10173000ADD4002CABDB388F88B30025386FFEF7B3
:10174000B5FD02F047FF94FBF0F239465846FFF72B
:101750009AFD0646B7F9380002F087FE8246324607
:1017600039465846FFF710FD04460146304602F060
:1017700088FDFF493044C9690968884797F87410A3
:10178000890601D548B11DE038B10A2805D02028C6
:1017900018D197F87800012814D1641C12E01AE0DF
:1017A000304602F04FFD814631463846FFF758FD7E
:1017B0000544B9F1000F08D0454506DC304602F07B
:1017C0003DFD0644641E002CEADC5046A6EB0A01EF
:1017D00002F068FD024639465846BDE8F05F58E71A
:1017E00055E77CB50C4605466B4601AAFFF7ACFDF4
:1017F000206F02F0F0FB0099002243182146284692
:101800000093FFF78CFF7CBD2DE9F8438046B1F9CA
:1018100038000C46002530B394F8741049072BD4D7
:1018200002F023FE07460020B4F846600090B4F8AA
:101830004820034621464046521CFFF7C9FE034696
:101840003A4621464046FFF74AFD8046B4F84A0032
:10185000384402F0F7FC30B1464503D094F87410D8
:10186000890601D5012507E00A2805D02028F9D1ED
:1018700094F878000228F5D02846BDE8F8832DE9D1
:10188000F04104460D46B4F93820002022B110463C
:1018900002F0EBFD06F0B1F82918B4F84400091A7B
:1018A000491C002913DD10314618B4F938003146BF
:1018B00002F056FF05004FF000070AD0208F18B93C
:1018C000284602F0D2FD0770A4F844602587012065
:1018D00058E4002056E42DE9F0478146B1F938007C
:1018E0000C4600284BD002F0C0FD8046B4F84A50A8
:1018F00006F083F8A84242D908EB0506B4F8462062
:1019000021464846FFF7BFFC0746024621464846A7
:10191000FFF73AFC0146384602F0B3FCC5193A46D7
:1019200021464846FFF773FC3844AE4201D1451BBF
:1019300003E0304602F082FC05462946304602F0BC
:10194000B1FC07467119304606F079F80521484682
:1019500003F0A3FEA08FC01BA08794F8750040F091
:101960000E0084F87500204600F05DFDB4F84830A4
:10197000424621464846FFF7B2FCA4F84600E1E49F
:101980002DE9F0410C46804617460121204600F023
:1019900099FD68B3384602F05DFC064601462046D4
:1019A000FFF76DFF20B3B4F9380002F05EFDB4F824
:1019B0004A104518284606F020F8421CA819294666
:1019C00005F0E9FF3946284602F040FC0521404673
:1019D00003F063FEA08F401CA08794F8750040F0D0
:1019E000060084F87500204600F01DFD01202FE45C
:1019F00000202DE42DE9F34F8BB00C46086FFEF765
:101A000055FC02F0E7FD216A814694F877B0D1F8E1
:101A10001480A06E08EB0B06E56D301A059005FBEF
:101A20001980079094F8740000F0010004EB80071F
:101A3000B86A03F03BF8386B03F044F8FEF794FD06
:101A40000FFA88F0ADF808600890ADF80A000B981E
:101A500003F0C1FDA0EB0800A0EB0B00401EADF8A9
:101A60000C000B9803F0C3FDA0EB0800401EADF87E
:101A70000E0002A803F0E6FE0990208F00285AD03D
:101A8000002621460B9800F070FC0A9021460B9826
:101A900000F0DEFC8246B4F9380002F0E6FC0746AE
:101AA0000598ADF800000898ADF802000A9800EB20
:101AB000080101EB0B00401EADF80400E0886188CE
:101AC000401A401CADF80600B4F85400A84204DCEB
:101AD000B4F8561009B10F440646B4F85400A842B1
:101AE0000AD0AE4208D1B4F9380002F0BEFC381A70
:101AF000A4F85600A4F85450AE420EDB711B5145B9
:101B00000BDC6B463A4621460B9800F051FCBDF8C1
:101B1000021001EB0900ADF802003A4621460B988D
:101B2000FFF775FB07443846761C02F08BFB10B1BB
:101B3000711B5145D1DD0B9803F06AFDB0B306ABC4
:101B400004AA21460B98FFF7FFFBDDE904100844C7
:101B5000ADF80000DDE906100844ADF802002146AA
:101B60000B98FFF751FE78B1B4F9380002E000009D
:101B7000A894002002F079FCB4F84A1001442046F1
:101B8000FFF76EFB014600E00221BDF90000491E8F
:101B900001440AB2BDF90210A9F101030B44ADF8EA
:101BA00004201BB2ADF8063002F032FA099803F0B7
:101BB00049FE204603F085FA0DB0BDE8F08F2DE90F
:101BC000FC410E460746002502F04FFC0446132E4A
:101BD00023D00CDC102E32D004DC082E4CD00D2E7D
:101BE0007DD16DE0112E0CD0122E78D123E0A6F11C
:101BF0001700082873D2DFE800F032288080978031
:101C0000574E01466B4601AA3846FFF79DFB206FF1
:101C100002F0E1F900990B1A0AE001466B4601AAAD
:101C20003846FFF791FB206F02F0D5F90099431871
:101C30000093019A1BE0B4F84820014653E0B4F841
:101C4000482001463846521E4FE06B4601AA214605
:101C50003846FFF779FB47F6FF72009B07E06B46BB
:101C600001AA21463846FFF76FFB009B0022214660
:101C70003846FFF754FD56E094F87400C00753D17E
:101C8000B4F84820E08F82424DD921463846521E92
:101C9000FFF7FFFC03E094F87400C00744D121462D
:101CA0003846FFF718FE3EE094F87400410702D46E
:101CB00040F0040001E020F0040084F8740032E0F9
:101CC00094F87400C00713D10A2221463846FFF762
:101CD00057FE40B394F87400800609D500E00CE08C
:101CE000B4F8482021463846521CFFF7D2FC1AE0CF
:101CF00021463846FFF775FD15E094F87400C007DB
:101D000012D1202E10D321463846FFF77DFD18B1A1
:101D100021463846FFF7DFFD324621463846FFF7B9
:101D20002FFE0028DAD10125384600F0ABFB28460B
:101D3000BDE8FC812DE9FE43B0F90460054601468B
:101D4000304603F0E1F8002860D0304602F08DFB09
:101D5000044628680E287CD006DC052818D00B28FD
:101D60007ED00C2813D153E00F284BD0252802D069
:101D700026280CD119E094F8750040F00E0084F884
:101D80007500204600F04FFB3046FFF7B4FB7CE0C7
:101D900094F8750040F00E0084F87500204600F0BD
:101DA00042FB304600F065FB6FE0A868052802D0D2
:101DB00006286AD122E0304603F0F4FB0146B5F96B
:101DC0000600814205D1694603F0EFFB0198E0650A
:101DD0000CE0304603F0E3FB0146B5F90600814212
:101DE00053D1694603F0E1FB0198A066304600F04C
:101DF000B0FE0A21304603F050FC46E0304600F0C9
:101E00001AFB42E021463046FFF7F4FDBDE8FE83B1
:101E1000B146AE680EB3307AE8B1206AA16E476968
:101E20003068084494F87710C01BA0EB0108206FBD
:101E300002F0D1F87168E26D02FB0010C31B42464C
:101E400021464846FFF76BFC484600F012FB012193
:101E500004E00AE004E0022100E003214846CAE76A
:101E600004F1380002F04EFB0FE0A8684168002939
:101E700007DD008881B23046FFF7A1FE0028C5D1FA
:101E800003E094F87400C007C0D0284601F017F9A9
:101E9000BCE72DE9F04789465FEA000A50D00026EA
:101EA0003546B0463746504602F0DFFA0446B0F9F0
:101EB000380078B102F0D9FA0546E18F02F0E1F975
:101EC0004719384601F06CFD05460146384602F0D8
:101ED000D8F90746B9F1000007D001F061FD0646C8
:101EE0000146484602F0CDF98046711B204600F0BD
:101EF000E9FA002824D0A8EB07012046FFF7BFFC31
:101F000000281DD0B4F9380002F0AFFA0546E18F81
:101F100002F0B7F92844B9F1000102D005F08FFDB5
:101F200001E000210170E28F21465046FFF7B1FB2E
:101F3000504600F0A7FA14F8750F40F00700207023
:101F40001DE52DE9FF5F0546DDE90E49DDE911A636
:101F500042EA030088462843DDF84CB0109F50EA5F
:101F600008000FD16946204603F098FABDF9040035
:101F7000BDF90010421ABDF90600BDF90210521C4D
:101F8000431A5B1C5C21DFF804C41FFA89F0CDE919
:101F900002C1CDE900404146284600F0DCFD0500C5
:101FA0003FD002F062FA04461022514602F0A6FF2A
:101FB000F74A002002F1080304EB800152F820C028
:101FC000C1F828C053F820C0401CC1F830C0022816
:101FD000F2DBEF480121001F00682067002084F831
:101FE0007470A4F84800A4F84A0084F87710608759
:101FF000E087A4F844002087002E0BDD30B201F00A
:10200000BCFD18B1A4F84460208703E0284600F026
:1020100041FC002559462846FFF73BFF2846FFF7BD
:10202000AEFA04B02846BDE8F09F02004FF0000071
:1020300001D01046C3E570472DE9F04115460E4624
:1020400000281BD002F011FA040017D0B4F93800B0
:1020500002F00BFA0746E18F02F013F90744384605
:1020600005F0CBFC0446681E844200DD044622468F
:102070003946304605F08FFC0020305528E42DE924
:10208000F04115460E46002817D002F0EEF9040084
:1020900013D0B4F9380002F0E8F90746E18F02F0F6
:1020A000F0F80446681E844200DD044622463946A4
:1020B000304605F070FC0020305509E40121FFF79F
:1020C00008BB0221FFF705BB0021FFF702BB04227A
:1020D00000F0E5B9012200F0E2B970B50E46050046
:1020E0000CD002F0C2F9044620223146284600F006
:1020F000D6F914F8750F40F00E01217070BD08225A
:1021000000F0CDB9102200F0CAB970B50C46050038
:102110000CD002F0AAF990F87710A14206D080F80E
:1021200077402846BDE8704000F0A3B970BD70B597
:102130000D4606000ED002F098F90446006FA84242
:1021400008D044F8705F304600F09CF9607940F0A8
:102150000E00607170BD70B516460C4605000BD0C0
:10216000022C09D202F081F900EB84008662284635
:10217000BDE8704000F086B970BD70B50D46040032
:102180000BD002F072F901462A462046FFF781FA89
:102190002046BDE8704000F0DCBC70BD70B516464E
:1021A0000C4605000BD0022C09D202F05EF900EBC0
:1021B000840006632846BDE8704000F0CABC70BDCC
:1021C0002DE9F04789465FEA000A4FD00025A8466E
:1021D0002E462F46504602F048F90446B0F9380022
:1021E00038B102F042F9B4F83E80414602F049F8B5
:1021F0000746B9F1000007D001F0D2FB05460146C1
:10220000484602F03EF80646A5EB0801204600F0DD
:1022100059F900282AD0F11B2046FFF730FB00288F
:1022200024D0B4F9380002F020F98046384407463B
:1022300005F0E3FB421C394608EB060005F0ABFB5A
:10224000B9F1000004D001463246404605F0A3FB38
:10225000E5872A4621465046FFF71BFA504600F014
:1022600011F914F8750F40F00700207068E62DE9A9
:10227000F0410D4606001FD002F0F7F8044628B2E0
:1022800001F07BFC070012D004F1380002F03AF9AB
:1022900027870020A4F84450E087024621463046B4
:1022A000FFF7F7F914F8750F40F00F002070304673
:1022B000BDE8F04100F0E6B8E0E62DE9F0410F4658
:1022C000060027D002F0D1F80446B8B26087E18F4B
:1022D000B94200D9E087B4F9380000281AD0002F9D
:1022E00018D002F0C2F80546394601F0CAFF02468E
:1022F000B4F8440090420DDD0021A9542146304637
:10230000FFF7C7F9304600F0BDF814F8750F40F03C
:1023100001002070B2E670B5002578B102F0A5F892
:102320000446B0F9380048B102F09FF80546E18F45
:1023300001F0A7FF284405F060FB451C284670BD4E
:1023400010B5044690F87500C0070CD0B4F93800F9
:1023500002F08BF801F024FBA08794F8750020F0C0
:10236000010084F87500A08F10BD1CB50C466946AD
:1023700003F0BBF8BDF90400BDF9002094F8771014
:10238000801A494200EB4100401E1CBD351D00086B
:10239000FC06002073B50C46002505E0684601F0F8
:1023A0005DFF02F050F90544641EF7D228467CBD5B
:1023B0002DE9F0411F4690460C46FEF7E5FE054626
:1023C00094F87400800625D5002641462046FEF785
:1023D000C3FE0446A54201DA2C4600E02E1B23462C
:1023E00000223946404601F03AFD21464046FFF7BB
:1023F000D1FFB7F90010002E084413D001B2B7F98D
:1024000002202A2001F006FC711EBDE8F0412A20BE
:1024100001F006BC2B4639464046BDE8F04100229B
:1024200001F01DBD2AE60021A0F8521020F8501F2F
:10243000C1808180704710B5044602F016F800F1A3
:10244000640200F158012046BDE8104002F0C6BD0C
:102450001CB50C46694603F048F8206F01F0BBFD3F
:10246000BDF90610BDF90220891A491C91FBF0F054
:102470008BE710B50446FFF782F82046BDE8104010
:1024800000F067BB1CB50446FFF779F869462046A3
:1024900003F02BF86946204600F02EFB75E770B577
:1024A00014460D4606000CD001F0DFFF10F8741F33
:1024B0000DB1214300E0A14301703046BDE87040FA
:1024C000E0E770BD70B50D1E04460DDD608F58B19C
:1024D000218F002011B12046FFF732FF618F284481
:1024E000884201DD002070BD012070BDF0B587B0CD
:1024F0001C461546B0F90860478A43690022CDE9B9
:10250000043203968DE88600B0F90C10B0F9103053
:10251000B0F90E20B0F90A0021442844FFF711FD5C
:1025200007B0F0BDF0B585B01C461546B0F90830CF
:10253000468A42680296CDE903320227CDE90017A8
:10254000B0F90C10B0F91030B0F90E20B0F90A0053
:102550002144284402F0A9FB05B0F0BD70B50D463A
:10256000040007D001F081FFC5622046BDE870403D
:1025700000F0EFBA70BD70B50D4604000CD001F04C
:1025800074FF2946283001F06BFA002804D0204659
:10259000BDE8704000F0DDBA70BD0000B0F9001079
:1025A000B0F90420914205DCB0F90210B0F9060040
:1025B000814201DD00207047012070477CB50D4647
:1025C00001F053FF0446808B81071CD540F60101C2
:1025D0000840012817D02846FFF7E0FF002812D056
:1025E00022462946684601F005FA6846FFF7D6FFFD
:1025F000002808D0A08B810606D504F108016A46A0
:10260000084601F033FD7CBDDDE90012C4E9021289
:10261000FE4940F02000A083C888401CC8807CBDD3
:102620000B46B0F90220B0F90010184601F04ABD7F
:102630001CB5F7490446886B40B1026800924068B7
:102640000190F248B0F9120038B904E02046BDE824
:102650001C4002F07BBAB1F93C0001F006FF69466C
:10266000FFF7DEFF2146684601F0A7F9684602F051
:102670006DFA1CBD2DE9F0410E460746304601F0CB
:10268000F4FE0446007F800711D52146384601F04C
:1026900094F9B4F916500DB12E46EFE7DB480A3035
:1026A000B0F90000B04202D10120BDE8F081002065
:1026B000FBE71CB5D54C607818B1BDE81C40D54887
:1026C000B6E7D348B0F93C0001F0CFFED0E90010E6
:1026D000CDE90010B4F9121011B16846FFF7CAFF36
:1026E0006846FFF7A5FF1CBD2DE9F0470C00064624
:1026F00019D001F0BAFE054600206883EC8220461E
:1027000001F0B3FE0746287F00F00808B7F918006B
:102710005FEA000906D001F0A8FE0446B8F1000FF8
:1027200003D008E03E83BDE8F087207F000702D594
:10273000A5F81A90F6E7B4F91A7037B1384601F0E7
:1027400094FEB8F1000F02D007E06683EBE7017F4B
:10275000090702D566836F83E5E70446EBE770B5AA
:10276000054601F082FE0446B0F9160000280AD0A2
:1027700001F07BFE0646B0F91800A8420ED101F028
:1027800074FE408B308370BD01F06FFE0146B0F9DE
:102790001A00A84202D1608B488370BD0028F3D193
:1027A00070BD70B505469948B0F9084008E0294663
:1027B0002046FFF703FF204601F057FEB0F9144012
:1027C000002CF4D170BD70B5054601F04EFE0446F4
:1027D000C08A002807D02846FFF7C1FF2046FFF730
:1027E000E0FF0020E08270BD70B5894CB4F93C6018
:1027F00010B98648B0F90800A08701F036FE0546FA
:1028000002F033F9B5F900002064B5F90200606404
:10281000304670BD70B505467C48B0F908000DE043
:1028200001F023FEB0F914100446A94205D1284650
:1028300001F01BFE808AA08270BD08460028EFD1FF
:1028400070BD70B50D4604000AD001F00EFE01699E
:10285000002905D0AC8002692846BDE870401047C9
:1028600070BD0EB50091ADF804006946FFF7E9FFB1
:102870000EBD10B504466548B0F9080007E0A04257
:1028800001D1012010BD01F0F0FDB0F914000028C5
:10289000F5D110BD70B5040047D0FFF7EAFF00285E
:1028A00043D0204601F0E1FD584E05460020B0829D
:1028B000B6F91010A14200D13082B6F90E10A14233
:1028C00000D1F0812246B16905E0B1F904309342AC
:1028D00000D1888009680029F7D10721104602F04D
:1028E000DCFEB5F9180000F021F80B212046FFF7B7
:1028F000B8FF2046FFF767FF2046FFF78BFFA88B46
:10290000C10702D0716A491E7162800602D5F08843
:10291000401EF080B088401EB080204601F0EDFDE2
:10292000B6F90800BDE870405EE770BD70B50446BA
:1029300008E0204601F099FDB0F91A502046FFF753
:10294000A9FF2C46002CF4D170BD2AE72DE9FC41EB
:1029500090460E4640E001F088FD848B0546A007B6
:1029600038D5B8F1000005D002462946684601F086
:1029700041F803E0D5E90001CDE9000169463046A0
:1029800001F0F0FB30B3E00702D0B5F918401FE0CA
:10299000B5F90200B6F90210884207DDBDF9020060
:1029A000B6F90610401E05E0F08013E0BDF9060000
:1029B000B6F906108842F7DB0CE0204601F055FD21
:1029C00007466A4631462046FFF7C0FFB7F91A406E
:1029D000002CF2D1B5F91A000028BCD1BDE8FC8169
:1029E0002DE9FC479146884600263BE001F03DFD7D
:1029F000848B0546A00733D5B9F100000CD0024600
:102A00002946684600F0F6FF0AE000000C070020A7
:102A1000A89400200C950020D5E90001CDE9000123
:102A20006946404601F09EFBD0B1E00702D0B5F9FF
:102A3000184013E0BDF80400401CA8F8000001266F
:102A40000EE0204601F011FD07466A464146204649
:102A5000FFF7C6FF00B10126B7F91A40002CF0D1EC
:102A6000B5F91A000028C1D13046BDE8FC872DE930
:102A7000FC4190460E4630E001F0F7FC848B0546A1
:102A8000A00728D5B8F1000005D0024629466846BF
:102A900000F0B0FF03E0D5E90001CDE9000169468F
:102AA000304601F05FFBB0B1E00702D0B5F9184045
:102AB0000FE0BDF80000401EB0800CE0204601F0A1
:102AC000D4FC07466A4631462046FFF7D0FFB7F9E7
:102AD0001A40002CF2D1B5F91A000028CCD17DE7BC
:102AE00000224A800A8082880388D21A8A80C2889B
:102AF0004088101AC88070477FB50D46060023D065
:102B000001F0B3FC848BA1071ED5D0E90012CDE9FA
:102B1000001255B1296802916968039102A9FFF773
:102B20007FFD02A9684600F048FF31466846FFF77E
:102B3000A1FD002808D040F601000440012C04D07B
:102B400069463046FFF73AFD7FBD6846FFF729FE2C
:102B50007FBD0021D0E72DE9F84FFB4C8046DDE931
:102B60000A65A089DDF834B0994692460F460543C0
:102B70002EB9A08818B104F10A00B0F90060701CE9
:102B80000DD0DEB1304601F070FCB0F90010B0F9A4
:102B9000022088441744BAF1000F02D006E0002654
:102BA0000CE0B0F90430591A01F1010AB9F1000F33
:102BB00004D1B0F90600801A00F101090BF12000E0
:102BC00000B200F0DAFF0090F0B3A088A346401CEA
:102BD000A080009801F049FCA0F8008008EB0A01F1
:102BE0004780491E818007EB0901491EC1800C996D
:102BF00001610446818B43F68F7028400143A18315
:102C0000BBF90800009F58B101F02FFC8046384600
:102C100001F02BFCB8F814108182A8F8147001E0C0
:102C2000ABF8087031460098FFF75EFDA80602D5A4
:102C30000098FFF7D9FDE80704D0DBF82410491C01
:102C4000CBF82410680600E010E002D5009802F0EE
:102C50008FFBA80706D5A08B40F00200A083009848
:102C6000FFF777FF01210098FFF7FBFD0098BDE813
:102C7000F88F2DE9FF410AAF0DF1040897E87000C5
:102C80000027009788E87000FFF765FF04B00CE5A7
:102C9000AE48B0F93C0070472DE9FC41AC4ED6E996
:102CA0000201CDE90001306968B3B089401C00B26F
:102CB000ADF800007189ADF80210B6F90410884231
:102CC00006DD3088ADF80000F089401CADF8020048
:102CD000BDF90200B6F90610884270DC9B4FB7F9C7
:102CE0003C0001F0C2FB0446BDF90000B6F900103B
:102CF000884220D1F088ADF80600B088ADF8040015
:102D0000B7F93C000FE03088ADF800007088DDE7CF
:102D100001F0ABFB0546B0F91A0000226946FFF747
:102D200015FEB5F916000028F2D1B4F918000022FA
:102D30006946FFF70BFEBDF80000ADF80400B7F9D7
:102D40003C000CE001F091FB0546B0F91A000022AE
:102D50006946FFF745FE0028EDD1B5F916000028B9
:102D6000F0D1B4F9180000226946FFF739FE0028B7
:102D7000E1D1B6F90400BDF90010ADF804008842B5
:102D800004DADDE90001C6E902019AE7B7F93C007F
:102D90000AE001F06AFB0546B0F91A000022694614
:102DA000FFF765FEB5F916000028F2D1B4F9180056
:102DB00000226946FFF75BFE3069C82801DD00206C
:102DC0000CE6DDE90001C6E90201012006E670B566
:102DD0005D4D6878002806D05D4C6069012803DDF0
:102DE000401E6061002070BD287820B1002028704E
:102DF0005848006880472069401C2061FFF74CFF5D
:102E000050B1FFF756FC5448016819B150480830DA
:102E100088472870012070BD6069E1E72DE9FF4116
:102E2000494E8046707838B1494D6869401C6861E8
:102E3000012804DD012029E7FFF73BFCFAE7434FB7
:102E4000B7F93C0001F011FB04464FF0FF30286158
:102E5000B07820B1A0680090E068019006E0207F83
:102E6000800732D5D4E90001CDE90001B8F10000B6
:102E700003D00146684600F0A0FDB96B89B10A682D
:102E8000029249680391B6F91210204611B1084622
:102E900001F0EBFA02A9FFF7C3FB02A9684600F0B4
:102EA0008CFDB6F9121019B16846FFF7E3FB60B16B
:102EB000B7F93C106846FFF7DDFB30B1DDE90001F2
:102EC000C5E90001FFF783FFE0E66869401E68611D
:102ED0000020DBE610B501F06DF91C490020886385
:102EE00010BDFEB505460A69888B002A2BD08207E3
:102EF00029D5154E4FF00F0701F10804B278521C86
:102F0000B270C0040AD5ADF8045000970294FFF7E0
:102F1000E1FF69462846FFF794FC11E02046FFF7E1
:102F20007DFF0BE0ADF8045000970294FFF7D2FF4D
:102F300069462846FFF785FCFFF749FF0028F1D1D5
:102F4000B078401EB070FEBD0C070020A894002091
:102F500004950020AC060020A80600202DE9F047CB
:102F6000BC4C81460D46B4F93C0001F07EFA0830B5
:102F70002946804601F0F6F800281BD0D4E91067F6
:102F80004246294605F1080000F034FDDFF8C8820A
:102F90002946A8F81290B5F900002064B5F902009E
:102FA00060644846FFF79DFF0021A8F81210C4E9AD
:102FB00010670120BDE8F0872DE9F0470446007F47
:102FC0008007F7D5B4F9186004F108091BE0304612
:102FD00001F04BFA0546007FC043800711D14946F6
:102FE000284601F0BFF860B1D4E902708046294656
:102FF0003046FFF7B3FF10B12846FFF7DDFFC4E905
:103000000278B5F91A60002EE1D1D3E770B54468B3
:10301000B0F9002040F60101A08B0840012803D040
:1030200021461046FFF75DFF8B48406A002823D0F9
:103030002046FFF7C1FFB4F91660B4F91A4019E051
:10304000204601F012FA0546007FC043800703D1F5
:1030500029462046FFF782FF2846FFF7ADFFB5F966
:103060001A40002CECD1304601F0FFF9B0F91A40BB
:10307000B0F91660002EF4D170BD10B5764C206A00
:1030800000B180477548006808B1804710B901F069
:1030900042F808B1012010BD607820B1E08810B17D
:1030A00000F092F8F6E7002010BD10B5002400E013
:1030B0000124FFF7E2FF0028FAD1204610BD70B5C9
:1030C000B0F9045004468668284601F0CEF902465D
:1030D0002068172811D004DC0E2810D0142809D13C
:1030E00004E0222811D0282804D111E031461046EE
:1030F000FFF7F6FC0020A06070BDA56070BD214602
:103100002846BDE8704002F0D2BA6FF07040F2E796
:103110002846BDE870401CE510B5044600680E283E
:1031200002D00F2814D108E0A0684168012913D10A
:103130000068BDE8104000F0DABF47486FF070410A
:103140001C300068884203D0FDF7ACF8FDF70CFA9C
:103150002046BDE81040B2E710BD3F49012048704D
:1031600070473D490020487001F07FBC3EB53A4CA5
:10317000E078002827D137492081A0828863E08049
:10318000A08037490222CDE9002140F6FF7202906B
:1031900013460146FFF76DFD04F10A0504F11C0218
:1031A00028806FF070411160FFF7D3FC2D4802F0CA
:1031B0005BF92D4802F058F9B5F90000FFF714FB50
:1031C00001206070E0703EBD2DE9F041DFF888809D
:1031D00096B00125B8F914700FB9B8F908706846AF
:1031E00000F0DCFF2BE0384601F03FF90446007F99
:1031F0000026800621D5206978B1394604F10800FF
:10320000FFF738FA48B1ADF8507038461594FFF71B
:10321000EBFA14A8FFF7FAFE0126A08B20F020009D
:10322000A083810402D540F00401A183B8F8061000
:10323000491EA8F8061006B16D1EB4F914700FB13E
:10324000002DD0D1A8F81470684600F0ABFF16B07E
:10325000BDE8F081A89400200C0700209C06002007
:1032600019310008640700206C0700200148B0F9FC
:10327000000070471607002070B50D46002601F0CB
:10328000F4F8B0F9184011E0204600F01AF8A8420E
:1032900001D1204670BD29462046FFF7EDFF06000C
:1032A00006D1204601F0E1F8B0F91A40002CEBD12C
:1032B000304670BD02004FF0000001D01046DBE741
:1032C00070470EB5152100916946FFF7BAFA0298CA
:1032D0000EBD70B50E4605004FF0000406D001F09B
:1032E000C4F8046906612846FFF733FC204670BD28
:1032F0002DE9FF4107004FF000000090019002907F
:1033000036D01E4CB4F90000874231D0ADF80C0025
:103310001F21ADF80E70009110B16946FFF791FAC8
:1033200001200290278069463846FFF78AFA029EFC
:1033300003AC21252EB11CE0694600950294FFF7ED
:1033400080FA384602F023F90700F5D1BDF90C7078
:10335000384602F07DF928B90BE0694600950294E1
:10336000FFF76FFA384602F012F90700F5D100E0D6
:10337000012604B03046BDE8F08100001C070020A3
:1033800010B50022C0F30B00B0F5006F02DD012282
:10339000A0F50060B0F5806F01DDC0F5006083111D
:1033A000FC4C00F03F00C0F1400134F813004843EA
:1033B000402906D004EB4303C1F140015B8803FBC5
:1033C000010020308009002A00D0404210BD00F5E5
:1033D0008060D5E7F04B1A7D012A05D0521E02EB22
:1033E000D272521002F0B2BF9A6C526810472DE9A7
:1033F000F84F05468846541BA3EB08079B469146A9
:103400004FF0000A54EA07002CD0204600F0F3F9F0
:103410000646384600F0EFF986420ADA20463C4676
:1034200007462846454680464846D94683464FF0DB
:10343000010A204600F0DFF9A04203D064427F4237
:103440004D46D84604EBD4704FEA6009002F01DAEC
:10345000C9F10009DFF840B34FF000069BF81600F1
:1034600098B132E02846BDE8F84FB3E707FB069075
:1034700090FBF4F101EB0800BAF1000F09D0DBF882
:103480004820A91952689047761CA642EEDDBDE897
:10349000F88FDBF84810AB194A6801461846F2E786
:1034A00007FB069090FBF4F101EB0800009030461A
:1034B00000F0E4F940B9BAF1000F09D0DBF8480098
:1034C000A919426800989047761CA642E8DDDEE71D
:1034D000DBF84810A8194A680099F4E72DE9FF477E
:1034E0000746AD4815461C46027D0E46012A1CD0F3
:1034F000781B311B50EA010371D0A2F1010800F0E2
:103500007EF900F580608146FFF761FF00FB08FC53
:103510004846FFF735FF00FB08F0BCF1000F0ADA60
:10352000CCF500718912494209E004B02A463846B8
:10353000BDE8F0475BE70CF5007C4FEAAC210028C2
:1035400004DAC0F500708012404202E000F500701D
:103550008012002904DD4A1C02EBD272521003E0F3
:1035600001EBD1725210491E01EBD17149100028B4
:1035700004DD431C03EBD3735B1003E000EBD0735B
:103580005B10401E07EB020CADF800C006EB030C0D
:10359000ADF802C0A7EB010C00EBD0704010ADF805
:1035A00004C0A6EB000C691AADF80810201AADF89B
:1035B0000A00A818ADF80C00E018ADF80E000023C2
:1035C000ADF806C01A460421684602F052FB3146A7
:1035D000384600F08CF92146284600F088F9BDE80D
:1035E000FF872DE9F0416C4D2C6C2718686CA518ED
:1035F0004618C4180020FFF711FC07E023462A46AE
:1036000031463846FFF76AFFFFF7E1FB0028F5D1A6
:10361000BDE8F08170B5604C0D460646B4F928103F
:10362000B4F926002B463246FFF758FFE68425857D
:1036300070BD594AD084118570472DE9F041054687
:103640000446B0F902001E4688468119B4F900000C
:1036500017463844FFF7EDFF07E0B4F9060081197B
:1036600034F9040F3844FFF7D5FFA8F10108B8F189
:10367000000FF2DCB4F90010B5F90000814205D169
:10368000B4F90210B5F902209142C1D0B5F9021087
:1036900038443144BDE8F041BCE7B9E72DE9F041D9
:1036A00007463D480E46016C406C8D18C41800203A
:1036B000FFF7B4FB07E023462A4631463846FFF7BA
:1036C000BCFFFFF784FB0028F5D1A1E7324AD38C79
:1036D0001844D084108D08441085704770B5054695
:1036E0000C460020FFF79AFB60B12B4EB6F928106C
:1036F000B6F926000B194219FFF7F0FEFFF767FB3A
:103700000028F3D121462846BDE87040DEE770B5B9
:10371000214D2A6C1618686C44180020FFF77EFBB8
:1037200009E032462346B5F92810B5F92600FFF71F
:10373000D5FEFFF74CFB0028F3D121463046BDE80B
:10374000704076E7144A136C526C1844114470E7C9
:103750002DE9FC41104C256C94F814C02F18606CB6
:10376000AE184418C518ACF1010CA7EB0C00ADF86D
:10377000000006EB0C00ADF80400A4EB0C00ADF863
:10378000020005EB0C00ADF806006846FFF746FBAB
:103790001AE00000EC5C0108A894002032462146A3
:1037A000384601F039F832462946384601F034F8F7
:1037B0006A1E611C384601F09BF96A1E611C304686
:1037C00001F096F9FFF703FB0028E7D1BDE8FC8183
:1037D00070B54A4A136C1D18506C44180020FFF74E
:1037E0001DFB05E021462846FFF7F4FDFFF7EFFA41
:1037F0000028F7D170BD002800DC4042704710B5AA
:103800000022002801DA01224042002902DA42F0B7
:1038100002024942814204DD0B460146184642F04D
:103820000402890200EBD07301EB630191FBF0F01D
:1038300080100311324C00F00F00C0F1100134F978
:1038400013004843102907D004EB4303C1F11001D2
:10385000B3F9023003FB01000830C11700EB11700F
:103860000011510701D5C0F58060D10701D0C0F526
:103870000060910701D5C0F5805010BD1F49897DBA
:10388000012906D002290ED0032918D0042914D109
:103890001EE0801DC11700EB117121F00F01401ACD
:1038A0000C2808DB09E0C11700EB917121F003013E
:1038B000401A022801DA01207047002070471421C5
:1038C00090FBF1F201FB12000C28F4DB10380BE046
:1038D000182190FBF1F201FB12000C28EBDBA0F1A8
:1038E00010010229E7D314380228E6D2E3E7034A9D
:1038F000527D002A00D16DE570470000A894002099
:103900000E5D01082DE9F041984616460C4680B33D
:1039100002F0CAFA074608F00300012824D0022862
:1039200016D0B4F9005000F055FE014608F00C0026
:1039300004282BD00C281DD0B4F9020035807080EB
:10394000EA19521E0844B280401EF080BDE8F081A2
:10395000B4F90400B4F90010401AC01B401C00EB7D
:10396000D07001EB6005DEE7B4F90400C51B6D1CE7
:10397000D9E710E0B4F90600B4F90220801A401A21
:10398000401C00EBD07002EB6000D7E7B4F90600F2
:10399000401A401CD2E72068306060687060D5E74C
:1039A00031B50024009808B905E0641C684600F0B1
:1039B00055FC0028F9D1204638BDB0F90030B1F9E6
:1039C0000020934200DA0280B0F90230B1F90220FF
:1039D000934200DA4280B0F90430B1F904209342F6
:1039E00000DD8280B0F90620B1F906108A4200DDC0
:1039F000C180704770B5B1F90030B2F90040A34200
:103A000000DC23460380B1F90250B2F90240A5421E
:103A100000DC25464580B1F90440B2F90460B442A7
:103A200000DD34468480B1F90660B2F906108E429A
:103A300000DC3146C1809C4201DBA94201DA002052
:103A400070BD012070BD0B88134403808B889B1AC6
:103A500083804B8813444380C988891AC18070478A
:103A60002DE9F04106460F460025B0F9000002F0AE
:103A70005DF890B1384602F069F8401C00B200F0E1
:103A8000F0FC040009D000F0F0FC394603F0D7FF49
:103A9000304600F037FD348001252846BDE8F0812E
:103AA0002DE9F843012A07D0022A27D0BDE8F843C0
:103AB00047F6FF7102F07DBA002688463446354647
:103AC00037460090684600F0C9FB28B101460A2835
:103AD00002D0202802D004E0254609E0202F00D0A3
:103AE00025460F4600F0AFFD0644464502DD0CB109
:103AF00015B116E0641CE5E7254612E000240E46E9
:103B00002546009008E000F09EFD04440DB1B4424B
:103B100007DC0A2F05D06D1C684600F09FFB0700EC
:103B2000F1D12846BDE8F88337B515460098FFF770
:103B3000B7FF04460146009800F0A3FB0099084433
:103B40000090684600F08AFB0A2802D0012D06D0BA
:103B500007E0641C05E06846641C00F07FFB202839
:103B6000F9D020463EBD10B50446FFF7DDFF014603
:103B70002046BDE8104000F084BB70B5054600F05B
:103B800070FC040005D000F070FC2A46002101F012
:103B900095FF204670BD00007CB5204C0546608C2A
:103BA000B4F8401008446084A08CB4F84410084471
:103BB000A084284600F047FD0146608CADF8000067
:103BC0000844401EADF8040002F06CF90146A08CD8
:103BD000ADF802000844401EADF806006846FFF745
:103BE0001DF904E0284600F003FDFFF7F0F8002877
:103BF000F8D10A2D03D0BDF80400401C608434F8CD
:103C0000220FE18B401A20806088618C401A60800E
:103C10007CBDC1E7014B59849A84BDE7A89400207C
:103C200070B50C46054602E02846FFF7F2FF641E19
:103C3000FAD570BD2DE9FC47050055D000F0CAFC4F
:103C4000374E0746B6F9229000F0E9FCB18C804669
:103C5000A1EB0800B0843CE047F6FF71284602F073
:103C6000A8F982460146284602F0BBF9044696F8B8
:103C70002C0000F0030001283CD0022836D00020A0
:103C8000718C6A46081A7084ADF80000611E084401
:103C9000ADF80400B08CADF80200791E0844ADF810
:103CA00006005146284602F0B3F9BDF80200B08480
:103CB0005146284600F0E5FA054428780A281BD02A
:103CC0000D2819D0BDF8000020447084287818B160
:103CD0006D1C28780028BFD1B18C01EB0800B0849E
:103CE000B08D20F00300B085BDE8FC8704EBD470F4
:103CF0004010C5E72046C3E796F82C0000F003000B
:103D000001280AD0022808D0308C708428780A282C
:103D1000DCD1B08C3844B084D8E7A6F82290F5E71F
:103D2000A89400202DE9FF4F85B000249A469146C3
:103D30000E462546DDF814B002F0B4F8804626B1F0
:103D4000306800907068019002E0684600F03AF92F
:103D500019F00C0F02D05646012713E0BDF90240BE
:103D60002DE03146059802F024F90146761A0598AF
:103D700000F087FA05990844059005A801F092FE25
:103D800010B97F1C002EECD109F00C00042804D0DF
:103D9000082802D00C2812D105E0BDF9061007FB57
:103DA0001814641C0BE0BDF90600BDF90210421A9C
:103DB00007FB1820401C00EBD07001EB6004564656
:103DC000CDF814B046E03146059802F0F2F8074607
:103DD0000146F61B059802F004F919F003010ED014
:103DE00001290FD0022911D1BDF90420BDF900101D
:103DF000521A121A02EBD27201EB620506E0BDF90B
:103E0000005003E0BDF904100D1A6D1C2649401E38
:103E100028444D84ADF80C00ADF808508C8404EBB8
:103E20000800401EADF80E00ADF80A4002AA39465F
:103E3000059802F0EDF83946059800F022FA059948
:103E40000844059000F0C6FB044405A801F02AFED2
:103E5000002801D1002EB6D109B0BDE8F08F2DE9C0
:103E6000FC411F46904606000D4617D0002465B160
:103E7000084601F0E7FC040007D0024629466846E0
:103E8000FFF7B8FD684601F0DDFC3B464246294697
:103E90003046FFF747FF204601F0D4FCBDE8FC8127
:103EA00047F6FF73DBE70000A89400201CB50A4624
:103EB00001466846FFF7C7FD2248BDF8002030F8EC
:103EC000401F0A44ADF80020BDF80220808802445B
:103ED000ADF80220BDF804201144ADF80410BDF87F
:103EE00006100844ADF806006846FEF797FF25E087
:103EF000BDF900400AE0BDF90210204600F072FC56
:103F0000BDF90610204600F06DFCA41CBDF90400AC
:103F1000A042F0DABDF902400AE0BDF900002146F6
:103F200000F060FCBDF90400214600F05BFCA41C1D
:103F3000BDF90600A042F0DAFEF749FF0028D7D10C
:103F40001CBD0000A89400200B4810B50068002498
:103F500010B1804700B10124FFF7A7F800B1012498
:103F6000204610BD10B5002400E00124FFF7ECFF4F
:103F70000028FAD1204610BD980600202DE9FC410A
:103F80000F4D2C6C2718686CA5184618C418ADF88E
:103F90000070ADF80450ADF80260ADF80640684618
:103FA000FEF73CFF07E023462A463146384600F03C
:103FB0004EFCFEF70CFF0028F5D1BDE8FC810000A7
:103FC000A8940020002801D001F076BA7047017D46
:103FD000C07D48437047417DC07D48437047000025
:103FE00000F00CB800F00EB870B50D4600F00AF8FD
:103FF0000446284600F002F8204370BD0349888437
:10400000002070470149488400207047A894002090
:104010002DE9FC4107461C4615460E46012001F0DD
:1040200081FF80461048016C406C0F4406440D44EB
:104030000444ADF80070ADF80450ADF80260ADF87E
:1040400006406846FEF7EAFE07E023462A46314668
:10405000384600F0FCFBFEF7BAFE0028F5D14046DA
:1040600001F060FFBDE8FC81A894002010B5002895
:1040700021D009B30AB3B1F90030B2F90040A3422C
:1040800000DD23460380B1F90230B2F90240A342B9
:1040900000DD23464380B1F90430B2F90440A34265
:1040A00000DC23468380B1F90630B2F906108B425A
:1040B00000DD1946C18010BD11460A6802604968DA
:1040C000416010BD00280BD003880B440380838817
:1040D00019448180418811444180C1881144C180C4
:1040E000704700001E49002248684A6070471C491A
:1040F0004A68002A00D14860704700B5FFF7F2FF18
:104100000028FBD100BD164A0832C2E9000114495B
:1041100001200860704770B5114A0020116800291D
:104120000FD0491E02F108041160D4E9005128465D
:1041300002F0B4FE6068012802D12846FFF7D7FFDD
:10414000012070BD70B50C46054602F0A7FE0028A0
:1041500004D121462846BDE87040D4E770BD000078
:1041600038070020B0F90220B1F906309A4213DC7A
:10417000B1F90220B0F906309A420DDCB0F9002006
:10418000B1F904309A4207DCB1F90010B0F904002B
:10419000814201DC01207047002070475022044911
:1041A00003F0F9BB01465022014803F0F4BB0000C4
:1041B000A894002010B50020FCF774F86FF07F4041
:1041C000FCF772F8012001F07FFE002001F0B4FE40
:1041D000002000F00FF8002001F0A4FE0448FCF7D6
:1041E00065F8BDE81040002001F09EBEE2E7000047
:1041F000806F0108024A0146B2F92A0051857047D2
:10420000A894002030B40C4C2268831A00D55B427D
:1042100062688A1A00D552421A44022A04DDC4E9AF
:10422000000130BC01F090BE30BC7047024A1368F8
:104230000360506808607047480700202349C96937
:10424000496808472149C969096808471F4AD2696E
:10425000D26810471D49C969896808472DE9F041AE
:104260001A4F04460568F8690168284688470646DB
:10427000F869416828468847284420603046BDE8F0
:10428000F0812DE9F0410D46064600240F4F05E070
:10429000F869416830468847064404446D1EF7D2E9
:1042A0002046ECE72DE9F04100250E4607462C4656
:1042B000DFF8188006E0D8F81C10381949688847DC
:1042C00004446D1CA642F6DC2846D8E7A8940020DA
:1042D000007870470120704701207047017001206D
:1042E000704703490148C86170470000305D01080C
:1042F000A89400202DE9F04781464FF0FF380020B8
:10430000B04F1BE037F81100518806EB4605014419
:1043100037F91500411A0CB24C450EDA6CB1AA49B6
:10432000014407EB4500B0F90220081B03F033FB02
:1043300037F81500001B27F81500304600EB400148
:1043400007EB41021679002EDCD100EB400207EBAF
:10435000410137F91220B1F902101144C1F5A05200
:104360004A4500DB80460FFA88F0BDE8F0879748A1
:10437000A1210422416081604FF4A051C1810182DA
:104380000021016081818F48428001800171904944
:104390000120087070472DE9F041044600F00CF947
:1043A000E41CDFF8288224F0030004B2B8F90E0000
:1043B000A04254DB834E012000EB400106EB41019B
:1043C000498851B1401CA228F6DB0025EDB32046F8
:1043D00000F0C8F8411C02D006E005B2F6E720461E
:1043E000FFF788FF411C3AD000EB400106EB410388
:1043F00036F81120598805EB450C571806EB4C028E
:104400001979548026F81C70117121B101EB41011A
:1044100006EB41014D7150711D71D8F80000414605
:10442000401CC8F80000D8F80400401EC8F804007A
:10443000D8F80820824200DD88608889204488817D
:10444000C889001B00B2C88100E008E0B1F9102063
:10445000824201DDA8F810002846BDE8F081002066
:10446000FBE7002800D096E77047002806D05549A2
:1044700000EB400031F9100053490844704710B573
:1044800000F09AF85148B0F90E0010BD70B5002444
:1044900000F092F800204B4D0DE035F812005A88DC
:1044A000104401EB410235F81220101A00B2A0426C
:1044B00000DD0446084600EB400205EB4203197993
:1044C0000029EAD100EB400005EB420135F910006C
:1044D000B1F902100844C0F5A05000B2A04200DDBE
:1044E0000446204670BD002806D0364900EB400047
:1044F00001EB4000B0F902007047002801D000F045
:104500000AB8704710B50446B0F90000FFF7F5FF90
:104510000020208010BD2B4B00EB400010B503EBBA
:104520004001B1F9020000281BD0284AD489044474
:10453000D4819489201A9081002048800879497993
:1045400001EB410403EB4404207120B100EB400077
:1045500003EB400041715068401C50601068401EE1
:10456000106010BD30B50021164D0CE035F9133048
:10457000B4F90240234402EB420435F91440E31A33
:10458000834214DA114601EB410305EB430422791F
:10459000002AEBD101EB410205EB430335F9122070
:1045A000B3F902301A44C2F5A052824201DB08B2CC
:1045B00030BD4FF0FF3030BD05480078002800D1F5
:1045C000D5E670471CA900201C950020E8AC00200F
:1045D000500700201E488069407D704700B5FFF7F6
:1045E000F9FF1B498A8C10448884088C488400BDDC
:1045F00010B504460A280ED00D2C0FD0144880693F
:1046000001682046884713480168002906D02046E3
:10461000BDE810400847BDE81040DFE710BD0C4979
:10462000002091F82C1001F00C020949042A896934
:1046300006D0082A01D00C2A01D1087D4008704715
:10464000087D401E70470249896949680847000093
:10465000A8940020A00600202DE9F0433F4D044619
:1046600087B0A869B5F92A802146806900F06AF808
:10467000002846D041680088201A01EBC00440465B
:10468000A67800F0A1F8814660680121CDE9040513
:10469000CDE90216A869C27D817DCDE90012037DB6
:1046A0002278B5F92410B5F9220000F0EEF8A869D7
:1046B000477D067DB74219D9C07D47434643B8F1CF
:1046C000020F13D001F0E7FB804601F0DBFBFBF7A4
:1046D000EBFDB5F9220021784218B5F92410CB1969
:1046E000314400F0B4F84046FBF7DEFD484600F0E8
:1046F0006BF8AA69B5F922006178927D01FB02008E
:10470000688407B0BDE8F08370B5144C05462946AF
:10471000A069806900F016F8002807D04168008879
:10472000281A11F83000A169897D484370BD012025
:104730000880704710B5806900F004F8002800D0A8
:10474000012010BD06E002888A4202D842888A42CF
:1047500002D280680028F6D170470000A89400209B
:104760002DE9F04106460C4608B2FFF77AFE050037
:1047700015D0A6B13046FFF7B6FEA04200DA0446D7
:104780002846FFF772FE07463046FFF76EFE0146E9
:104790002246384603F0FFF83046FFF7AEFE2846C3
:1047A000BDE8F08110B50446012000F097F9CE492C
:1047B00021F8104010BD10B50446002000F08EF91D
:1047C000C94921F8104010BDC74910B50246087B01
:1047D00080EA02035B0703D50B884C880C804B8072
:1047E0000A7310BDC04AB2F906308B4213DCB2F92D
:1047F0000A308B420FDBB2F9043083420BDCB2F992
:104800000830834207DB137BDB0701D004F09EBD39
:10481000528804F097BD704730B4B34CB4F90630F9
:104820008B4212DCB4F90A308B420EDBB4F904304F
:10483000834200DD1846B4F90830934200DA1A4684
:10484000824202DB30BC04F0EFBC30BC704730B4B5
:10485000A54DB5F90440844200DD2046B5F9084075
:10486000944200DA22468242EFDBB5F906408C42E0
:1048700000DD2146B5F90A409C4200DA23468B420E
:10488000E3DB30BC04F004BDDFE72DE9F04F054663
:10489000964887B09846149C00689146002790B1CE
:1048A000DDE91263159ACDE90263CDE90442DDE941
:1048B0001023CDE90023046843464A462846A04712
:1048C00007B0BDE8F08FDDE9100205EB090301EB4D
:1048D000080C10435B1EACF1010C012807D01298A4
:1048E000C0F10800CDE9011000200490BAE07E4E2E
:1048F000B6F90620501A002808DDA8EB0008B8F128
:10490000000FDDDD1146139A00FB0244B6F90A00E0
:10491000ACEB0000002804DDA8EB0008B8F1000FA4
:10492000CEDDB6F90800181A002801DDA9EB000950
:10493000B6F904000022A84233DD421B1298A9EB0D
:10494000020904281FD004DC01280CD0022828D139
:1049500011E0654BB3F904305B1B2B4408281AD0D7
:1049600010281ED119E022F0070004EBE2040544F0
:1049700002F0070215E022F0030004EBA204054454
:1049800002F003020DE022F0010004EB6204054492
:1049900002F0010205E0144401E004EB42041D466C
:1049A0000022B9F1000F8BDD1598139BCDE9032090
:1049B000CDE901341298009043464A46284604F057
:1049C000C1F97DE711990198084406904649401EB7
:1049D0000090B1F9062082423CDC0846B0F90A108A
:1049E0000198814236DB0026AA46B34603942FE0A5
:1049F00026B90398082610F8017B0390029937FA2C
:104A000001F0129907FA01F7FFB2A6EB010603D1F4
:104A10003549097B890717D4334949880591159988
:104A200021B131F810103048418001E02E49488012
:104A3000109950460AEB0102DDE90031521EFFF7E2
:104A400006FF29490598488010990BF1010B8A440B
:104A5000CB45CDDB0498401C049006980190139838
:104A6000044404984045ADDB2AE71F48001D00F0D0
:104A700063B810B5FFF7F9FF04F060FC044602F0DC
:104A800043F80420FFF7A0FE40F6FF720021134612
:104A90000846FFF7DCFE0020FFF796FE04F050FC0E
:104AA000204610BD00F042B800F042B80E4910B5E3
:104AB0004A6B824205D04863FFF7F4FFBDE810401F
:104AC00079E610BD084910B50A6B824205D008632B
:104AD000FFF7E8FFBDE8104064E610BD0249097B1E
:104AE000490700D5401E7047A8940020A406002066
:104AF00030B40D4CB4F90430834212DCB4F9083000
:104B000083420EDBB4F906308B4200DD1946B4F95E
:104B10000A30934200DA1A468A4202DB30BC04F0C3
:104B20009DBB30BC70470000A894002000F0ACBFD3
:104B300001F0EEBF00F0B3BF00210180418040F2E0
:104B4000DF11818040F23F11C18070471CB50446DF
:104B50006846FFF7F1FF6A4621460248FEF74AFF22
:104B60001CBD0000AC94002070B515460C46060034
:104B700010D0FFF77AFC032C0CD800EB440404F1AE
:104B80004A00FFF7BFFCA4F84A503046BDE8704029
:104B9000FDF7DFBF70BD70B514460D46002808D084
:104BA000FFF763FC016822460B682946BDE87040A8
:104BB000184770BD10B5002806D0FFF756FC0168F5
:104BC0004968BDE81040084710BD10B5002806D060
:104BD000FFF74BFC01688968BDE81040084710BD2D
:104BE000B0F90A301A44B0F908304068194401F0AD
:104BF00004B84068008870474068408870472DE9D5
:104C0000F041074615460E460C20FEF7B6FF04009D
:104C100006D0FFF72AFC0449C0E900170681458148
:104C20002046BDE8F0810000087801087CB5B0F9A5
:104C3000046005463046FFF718FC04462946304616
:104C400000F062F9002826D028680B2824D00F280D
:104C500026D1606BFFF736FFE06AFBF727FB304693
:104C600002F040FA20B9A06BFFF720FFFBF77CFCB5
:104C7000B4F9280000280ED0FFF7F7FB0546022004
:104C8000FFF7B8FA684600F017FCB4F9302069461F
:104C90002846FFF705F97CBD04F12800FFF732FC38
:104CA0002846BDE87C40FEF70ABA2DE9FF470DAD66
:104CB000044695E801030C9E80B240F00100109F6D
:104CC0004FF01C0C1C4DCDE90060CDE9025C204684
:104CD000FDF741FF060021D00025FFF7C6FB044683
:104CE0000022494600F00AF96FB1384602F085FE0D
:104CF000401C00B2FEF741FF050004D0FFF7B5FBF2
:104D0000394602F09CFE0D482585A4F830800168E4
:104D1000E1626FF07041A1634068606304B03046A7
:104D2000BDE8F0870549086070470449486070474E
:104D300002480068704700002D4C0008540700200E
:104D40007CB50D46016A4C69D0E90212CDE900122A
:104D50006946FDF765FCB5F90000BDF90010204477
:104D6000884214DCB5F90400BDF90410001B884228
:104D70000DDBB5F90200BDF902102044884206DCC3
:104D8000B5F90600BDF90610001B884201DA0120C2
:104D90007CBD00207CBD30B5858800881488281A29
:104DA000D5889388451B0D805288801A88804C8056
:104DB000CB8030BD1CB590F826000C4600070FD5FF
:104DC000684600F079FBBDF802002080BDF80600BF
:104DD000A080BDF800006080BDF80400E0801CBD2C
:104DE000BDE81C40084600F067BB10B500F0CFFBE3
:104DF00001F081FF6FF07041884203D1BDE810409F
:104E0000FBF792BD10BD70B50D460446FDF768FE78
:104E1000206A29464269BDE870400846FEF713BE85
:104E200090F82610090704D5B0F90610B0F9020071
:104E300003E0B0F90410B0F90000081A401C7047F4
:104E400090F82610090704D5B0F90410B0F9000055
:104E500003E0B0F90610B0F90200081A401C7047D0
:104E600010B50446FFF701FB90F826000007204626
:104E700003D5BDE8104000F0BABBBDE8104000F01B
:104E8000AABB70B50C460546FFF7EFFAC18CA142EC
:104E900005D0C4842846BDE87040FDF75ABE70BDF9
:104EA00010B501004FF0000003D00846FFF7DDFA0F
:104EB000C08C10BD70B50C4605000CD0FFF7D5FABC
:104EC000C28C34EA020106D02243C2842846BDE8DF
:104ED0007040FDF73EBE70BD70B50D4604000CD0AD
:104EE000FFF7C3FAC28C1146AA43914205D0C2848F
:104EF0002046BDE87040FDF72CBE70BD824B1B689C
:104F00000362C2848184704738B50C460546FFF7BA
:104F1000ACFA216816293AD008DC0D292ED01129C7
:104F200021D0142952D0152956D119E01F2931D08A
:104F3000202946D0B1F5407F4ED1016A4A69A16867
:104F400001624869141A2846FFF78FFA6242234625
:104F50001146009401F065FE2846FDF7FAFD38E0A1
:104F6000B0F9240024E090F82600C00634D5A068EB
:104F7000007A80B32846FEF7BBF92DE0A068806870
:104F800048B3007A38B3284600F016FA21E02189A8
:104F900081841EE0A168C08C01290BD020F00101A2
:104FA0002846FFF76EFF0921284600F076FB002017
:104FB000A0600EE040F001012846FFF762FF0821E3
:104FC000F2E790F82600C0F30010F1E7A168FFF7C0
:104FD0001AFF002038BDFFE70120FBE770B50C4643
:104FE00015460646FE21FEF765F9214602F044F813
:104FF000FF213046FEF75EF92946BDE8704002F019
:105000003BB81CB514460A4690F82610090703D58C
:105010006946FFF7C0FE6A4621461046FEF746FF86
:105020001CBD7FB50C4690F826101546090714D50F
:10503000ADF80040ADF80440ADF80220ADF8063000
:105040006A4602A9FFF7A7FEBDF90C20BDF90810BA
:10505000BDF90A00FBF7E2F87FBD04B029462046FF
:10506000BDE870401A46FBF7FDB81CB590F8262045
:10507000120704D50A466946FFF78DFE6946BDE86A
:105080001C40084600F0F2BE7CB50C00054603D17A
:10509000684600F011FA6C4695F82600000705D521
:1050A000224669462846FFF776FE6C46214628468A
:1050B000FFF746FE002803D0286AC16820468847CB
:1050C0007CBD0021E0E77CB5054690F826000C4643
:1050D000000705D50A4669462846FFF75CFE6C4680
:1050E00021462846FFF72CFE002803D0286A816855
:1050F000204688477CBD044A01461068116070470D
:1051000001480068704700005C0700202DE9F0416D
:10511000056846680020FFF7D5FC331437B22E141B
:105120002DB21C463A4631462846FEF711FB6FF079
:105130007F40FFF7C7FCBA1E691C701CFBF76EF8B6
:10514000A21E711C681CFBF78DF83748FFF7BAFCEC
:105150007A1E691C601EFBF761F8A21E711C781E86
:10516000BDE8F041FBF77EB82DE9F04104684668E0
:105170000020FFF7A7FC2D48FFF7A4FC25B237B2AB
:1051800024143A4629462046FBF748F83614611C99
:1051900028463246FBF766F80020FFF793FC7A1E9C
:1051A000691C601CFBF73AF8721EA11C681CFBF717
:1051B00059F86FF07F40FFF785FC3A46691C30468E
:1051C000FBF72CF83246611C3846FBF74BF81848C1
:1051D000FFF778FC7A1EA91C701EFBF71FF8721EE1
:1051E000A11C781EBDE8F041FBF73CB81CB5684631
:1051F00000F062F96846FFF7B7FF1CBD10B5044622
:1052000000F05AF92146BDE8104002220846FEF798
:105210001ABC1CB5684600F04FF96846FFF776FFE8
:105220001CBD0448FFF767BF5555550080808000BE
:10523000C0C0C000147801082DE9FC4117463B4A64
:1052400006461D4610690C46F8B121680091616858
:105250000191BDF8003032F8401F0B44ADF800302A
:10526000BDF8023092881344ADF80230BDF8043026
:105270001944ADF80410BDF806101144ADF806103D
:105280006946FEF76FFF00284DD0E6B33078D0B303
:105290002A4639466846FEF7ADFBBDF90230B4F93F
:1052A0000420B4F90210B4F900005B1EFBF730F9DA
:1052B000BDF90020BDF90630BDF90210B4F90000B7
:1052C000521EFBF725F9BDF90400BDF90630B4F90B
:1052D0000420BDF90210401CFBF71AF9BDF90610B5
:1052E000B4F90630B4F90420B4F90000491CFBF706
:1052F0000FF9384600F0A6FA04460020FEF77AFFC0
:10530000B5F9022000E009E0B5F900103046FAF7DF
:105310007DFF2046BDE8FC4100F094BA2046BDE880
:10532000FC4100F01DBCBDE8FC810000A8940020F9
:1053300070B50C46002550B14CB1FFF796F8B0F9A6
:105340001600A04201D1012501E00028F5D1284630
:1053500070BD884201D101207047E9E710B50124F2
:10536000FFF783F8007FC00600D50024204610BD5B
:105370002DE9F04107001AD0FFF777F806463846C6
:1053800001F01AFC040012D0384600F000F9FFF7D3
:105390006CF805462046FFF768F8718B4183288B2F
:1053A00070832F833046BDE8F041FDF7FAB9BDE8C0
:1053B000F0810000FDF7CDBB70B5050021D0FFF7EF
:1053C00054F80446B0F91A0000281AD0217F0907C2
:1053D00004D4FFF74AF8007F000712D4B4F916404E
:1053E0002846FDF7BCF921462846FDF77DF92846F9
:1053F000FDF7AFFB2846BDE870400022014901F0EF
:1054000078BC70BDB553000882680168891A00D560
:1054100000214268002A01DA002242608A4200DD4F
:105420004160704770B50446D4E901502E18761ECD
:105430008E4201DB606803E0081A1844401C60607B
:10544000884201DD881A60602046FFF7DDFF606852
:10545000401B70BD10B5446803464160FFF7D4FFA0
:105460005868001B10BD00000B490A680260086004
:105470007047094B1968002905D00022814206D1E6
:1054800008680AB1106070470028186070470A4623
:1054900009680029F2D170472407002010B50C4696
:1054A000002808D0002C06D0FEF7DFFF2146BDE81B
:1054B0001040FDF715BB10BD01460448B0F90000CF
:1054C00010B90348B0F93C00E8E700001E070020CF
:1054D000A89400200EB50021029117210091694681
:1054E000FDF7AFF9029800B20EBDF0B587B00C46DB
:1054F00005004AD0002C48D0FF21FDF7DBFE064610
:10550000FE212846FDF7D6FE074602A9284601F0EF
:1055100032FC04A9284601F00DFCC7B169463846A3
:1055200001F029FCBDF90A004242BDF908004142E0
:105530006846FEF7C7FD384601F0F1FB010606D5C7
:10554000800704D5BDF80000401EADF81400C6B1B8
:105550006946304601F00FFCBDF90A004242BDF930
:10556000080041426846FEF7ADFD304601F0D7FB2A
:10557000C10506D5800704D5BDF80200401EADF870
:105580001600049820600598606007B0F0BD10B563
:10559000002803D0FEF769FFB0F9160010BDFF2107
:1055A000FDF788BEFE21FDF785BE0EB523220291D0
:1055B00000926946FDF745F90EBDB0F90410B0F947
:1055C0000000081A401C7047B0F90610B0F902003C
:1055D000081A401C704710B500F015F8FEF745FF9B
:1055E000B0F90410B0F90000081A401C10BD10B545
:1055F00000F009F8FEF739FFB0F90610B0F9020023
:10560000081A401C10BD002801D1FDF741BB7047AE
:105610000449B1F90010884201D1012070470020EF
:10562000704700001C07002010B504000FD0FEF7E3
:105630001CFF828B91070AD522F00201818320464C
:10564000FEF713FF2146BDE81040FDF77EB910BDFF
:10565000FDF70FB92DE9F04116460F4605001AD0A7
:10566000FFF795FF002816D0FEF7FFFE04462846F8
:10567000FEF7FBFEB0F90010B4F90020B0F902000B
:10568000891AB4F90220791A801A321A2846BDE81C
:10569000F04101F0C1BBBDE8F0810EB526220291B8
:1056A0000092694600F003F80EBD01F0A6BA70B58D
:1056B0000C00054609D0FFF76AFF002805D0E580F9
:1056C0002146BDE87040FDF7BCB870BD2DE9FF4133
:1056D00016460C46074601F061FB1F4D50B32846A5
:1056E000B5F900202168B0F902008D1A61680C1A22
:1056F0004EB302A9384601F03EFB3846FFF747FF9C
:10570000694601F038FB2246294602A8FEF7DAFC7A
:10571000694632460846FEF796F9694602A8FEF742
:1057200021FD002804D022462946384601F0B3FB6B
:10573000BDE8FF810121384601F07CFC20882880EB
:10574000A0886880F4E704B0224629463846BDE8C0
:10575000F04101F0A0BB00006007002070B506001A
:105760004FF000001AD0304601F016FA01463046DC
:1057700000F017F805462C4606E02146304600F0BA
:1057800010F80446A84204D001F014FB08B9002C1C
:10579000F3D12046FDF7ACFD08B1002070BD2046D6
:1057A00070BD70B505460C0005D00846FEF75DFEDD
:1057B000B0F91A0020B92846FEF757FEB0F91800D4
:1057C000A04200D1002070BD2DE9F0410D461E46DB
:1057D00007461146FDF76EFD04462DB150B931461E
:1057E000384601F0BDF908E0FFF71EFF2CB1204656
:1057F000FDF750F80120BDE8F0810020FBE7082309
:10580000FE22E1E70023FF22DEE7FBE7F7E770B5C2
:1058100015460E46040014D0FEF727FEB0F904101A
:10582000B0F90020891AB0F90620B0F90200711A07
:10583000101A2A1A2046BDE87040491E521E01F077
:1058400045BB70BD034910B58C6B8863FCF731FF15
:10585000204610BDA894002070B5040011D0FDF7BB
:1058600078F9204601F053FA044608E02046FEF796
:10587000FCFD05462046FFF7EFFFB5F91A40002C66
:10588000F4D170BD10B504000BD0FEF7EEFD818B96
:105890008A0706D441F0020181832046BDE810400A
:1058A000DAE710BD7047704770B5734C0546A088A5
:1058B00048B1B4F904102846FFF73AFD18B9B4F915
:1058C0000400A84201D1012070BD002070BD3EB58A
:1058D0000D46044607C98DE807006946204601F0D9
:1058E0007EF90D20ADF80640009008E02046FFF755
:1058F0004EFE040003D06946029501F070F920467F
:10590000FFF7A6FE0028F1D13EBD70B58C680D46AC
:1059100006465CB1FEF7A9FDB0F900202168891A9E
:105920002160B0F902006168081A606029463046BB
:10593000BDE87040CBE72DE9F0418EB00027684606
:1059400000F0CEFA03A8FFF78FFD4C4C00992068B9
:10595000884208D160680199884204D1207A9DF874
:10596000081088427ED0DDE9000100F002FF4448C3
:10597000B0F9000018B9DDE9000101F04AFBADF80B
:105980001000BDF91000FFF78FFF002867D0207AC4
:105990009DF80810884220D0BDF81000E8B1BDF98C
:1059A0001000FEF762FD9DF808108DF83410217A82
:1059B0008DF83510B0F900200099891A0B91B0F9D3
:1059C00002000199081A0C900BA80790112005906D
:1059D000BDF9100005A901F002F9217A9DF808002F
:1059E00001433CD0244D0C21012708350591B5F920
:1059F0000410BDF9102000260DF12008914212D0AC
:105A0000A98881B108B1079607E02068089060680E
:105A100009908DF82860CDF81C80B5F9040005A91F
:105A2000FFF773FFAE80BDF81000C0B19DE807001E
:105A300008AB83E807009DF8280018B1BDF81000F6
:105A4000A88005E00F48007808B101F001FBAE80A6
:105A5000BDF91000CDF81C8005A9FFF756FF9DE8A1
:105A6000070000E001E084E8070003A8FFF701FD5C
:105A70000EB03846BDE8F08164070020F89400209D
:105A80001A07002034070020C0F3C402C0F38521A8
:105A9000C0F3C44000EB411000EBC22070474FF64A
:105AA000FF707047016811F8012B12B10A2A02D069
:105AB00002E00120704701600020704710B502E04D
:105AC00000F8011B521E0AB18307F9D1930818D0C0
:105AD00001EB014402F0030204EB042406E010C0D1
