:020000040800F2
:1000000038D30020450100084D0100084F010008C9
:1000100051010008530100085501000800000000CC
:100020000000000000000000000000005701000870
:100030005901000800000000AB0100085D01000844
:1000400081A50008C19F000805A300085DA1000864
:10005000A1880008F5A000088588000889880008A4
:100060008F8800085F010008918800085F01000880
:100070005F0100085F0100085F0100085F010008E0
:100080005F0100085F0100085F0100085F010008D0
:100090005F0100085F0100085F0100089388000805
:1000A0005F0100085F0100085F01000807A3000866
:1000B00055A3000879A300087BA30008DD8C000885
:1000C000DB8C0008E18C0008DF8C00085FA10008D1
:1000D00061A1000813A5000815A5000817A50008D0
:1000E0008788000855A1000821A500085F010008C5
:1000F0005F0100085F0100085F0100085F01000860
:100100005F0100085F0100085F0100085F0100084F
:100110005F0100085F0100085F0100085F0100083F
:100120005F0100085F0100085F0100085F0100082F
:10013000DFF80CD007F0AAFF00480047CDDD00082B
:1001400038D300200648804706480047FEE7FEE710
:10015000FEE7FEE7FEE7FEE7FEE7FEE7FEE7FEE777
:1001600015A2000831010008EFF3108072B6704745
:1001700080F3108870471D484FF0FF010170002088
:1001800080F309881A48012101701A484FF0805104
:10019000016062B6FEE717484FF08051016070477A
:1001A00014484FF080510160704772B6EFF3098038
:1001B00028B1203880E8F00F0F490968086000B5C1
:1001C0000E4880475DF804EB0D480E490A7802702E
:1001D00009480D490A680260106890E8F00F203065
:1001E00080F309884EF0040E62B6704722ED00E0FD
:1001F0000B00002004ED00E024000020099C000812
:1002000008000020090000202C00002010B500226A
:10021000C0F30B00B0F5006F02DD0122A0F5006015
:10022000B0F5806F01DDC0F500608311FC4C00F07B
:100230003F00C0F1400134F813004843402906D084
:1002400004EB4303C1F140015B8803FB0100203054
:100250008009002A00D0404210BD00F58060D5E73B
:10026000F04B1A7D012A05D0521E02EBD2725210B9
:1002700000F0AEBF9A6C526810472DE9F84F054662
:100280008846541BA3EB08079B4691464FF0000A93
:1002900054EA07002CD0204600F0F3F90646384611
:1002A00000F0EFF986420ADA20463C460746284627
:1002B000454680464846D94683464FF0010A2046C7
:1002C00000F0DFF9A04203D064427F424D46D84699
:1002D00004EBD4704FEA6009002F01DAC9F100097C
:1002E000DFF840B34FF000069BF8160098B132E0FB
:1002F0002846BDE8F84FB3E707FB069090FBF4F102
:1003000001EB0800BAF1000F09D0DBF84820A91969
:1003100052689047761CA642EEDDBDE8F88FDBF808
:100320004810AB194A6801461846F2E707FB0690E9
:1003300090FBF4F101EB08000090304600F0E4F986
:1003400040B9BAF1000F09D0DBF84800A91942689A
:1003500000989047761CA642E8DDDEE7DBF84810FF
:10036000A8194A680099F4E72DE9FF470746AD4808
:1003700015461C46027D0E46012A1CD0781B311BF7
:1003800050EA010371D0A2F1010800F07EF900F5F6
:1003900080608146FFF761FF00FB08FC4846FFF7DD
:1003A00035FF00FB08F0BCF1000F0ADACCF5007154
:1003B0008912494209E004B02A463846BDE8F047B0
:1003C0005BE70CF5007C4FEAAC21002804DAC0F5AD
:1003D00000708012404202E000F500708012002997
:1003E00004DD4A1C02EBD272521003E001EBD17221
:1003F0005210491E01EBD1714910002804DD431C45
:1004000003EBD3735B1003E000EBD0735B10401E73
:1004100007EB020CADF800C006EB030CADF802C010
:10042000A7EB010C00EBD0704010ADF804C0A6EBB8
:10043000000C691AADF80810201AADF80A00A818C7
:10044000ADF80C00E018ADF80E000023ADF806C0C2
:100450001A460421684605F082F93146384600F014
:100460008CF92146284600F088F9BDE8FF872DE980
:10047000F0416C4D2C6C2718686CA5184618C418F0
:10048000002004F02FFA07E023462A46314638467A
:10049000FFF76AFF04F0FFF90028F5D1BDE8F0810D
:1004A00070B5604C0D460646B4F92810B4F9260024
:1004B0002B463246FFF758FFE684258570BD594A22
:1004C000D084118570472DE9F04105460446B0F906
:1004D00002001E4688468119B4F9000017463844C8
:1004E000FFF7EDFF07E0B4F90600811934F9040FB6
:1004F0003844FFF7D5FFA8F10108B8F1000FF2DC8E
:10050000B4F90010B5F90000814205D1B4F9021028
:10051000B5F902209142C1D0B5F9021038443144F6
:10052000BDE8F041BCE7B9E72DE9F04107463D4899
:100530000E46016C406C8D18C418002004F0D2F9EE
:1005400007E023462A4631463846FFF7BCFF04F051
:10055000A2F90028F5D1A1E7324AD38C1844D084FF
:10056000108D08441085704770B505460C46002074
:1005700004F0B8F960B12B4EB6F92810B6F9260090
:100580000B194219FFF7F0FE04F085F90028F3D1AA
:1005900021462846BDE87040DEE770B5214D2A6C43
:1005A0001618686C4418002004F09CF909E03246E3
:1005B0002346B5F92810B5F92600FFF7D5FE04F05B
:1005C0006AF90028F3D121463046BDE8704076E74D
:1005D000144A136C526C1844114470E72DE9FC4125
:1005E000104C256C94F814C02F18606CAE18441889
:1005F000C518ACF1010CA7EB0C00ADF8000006EB40
:100600000C00ADF80400A4EB0C00ADF8020005EB03
:100610000C00ADF80600684604F064F91AE000002A
:1006200090FA000884AC002032462146384605F096
:1006300041FD32462946384605F03CFD6A1E611CE4
:10064000384605F0A3FE6A1E611C304605F09EFE8A
:1006500004F021F90028E7D1BDE8FC8170B54A4AD1
:10066000136C1D18506C4418002004F03BF905E091
:1006700021462846FFF7F4FD04F00DF90028F7D1D4
:1006800070BD002800DC4042704710B500220028F1
:1006900001DA01224042002902DA42F00202494214
:1006A000814204DD0B460146184642F004028902ED
:1006B00000EBD07301EB630191FBF0F080100311AC
:1006C000324C00F00F00C0F1100134F91300484320
:1006D000102907D004EB4303C1F11001B3F9023034
:1006E00003FB01000830C11700EB11700011510726
:1006F00001D5C0F58060D10701D0C0F50060910739
:1007000001D5C0F5805010BD1F49897D012906D053
:1007100002290ED0032918D0042914D11EE0801D0F
:10072000C11700EB117121F00F01401A0C2808DBF2
:1007300009E0C11700EB917121F00301401A022872
:1007400001DA0120704700207047142190FBF1F27C
:1007500001FB12000C28F4DB10380BE0182190FB91
:10076000F1F201FB12000C28EBDBA0F110010229D1
:10077000E7D314380228E6D2E3E7034A527D002A81
:1007800000D16DE57047000084AC0020B2FA00088B
:10079000024B59849A8404F09DBE000084AC002072
:1007A0002DE9FF4F85B000249A4691460E46254616
:1007B000DDF814B005F0DFF8804626B1306800900F
:1007C0007068019002E0684605F0D0F819F00C0F4F
:1007D00002D05646012713E0BDF902402DE0314614
:1007E000059805F052FA0146761A059805F0F1F9D8
:1007F00005990844059005A804F010FD10B97F1C68
:10080000002EECD109F00C00042804D0082802D0F6
:100810000C2812D105E0BDF9061007FB1814641C62
:100820000BE0BDF90600BDF90210421A07FB1820C3
:10083000401C00EBD07001EB60045646CDF814B0BC
:1008400046E03146059805F020FA07460146F61BBA
:10085000059805F032FA19F003010ED001290FD0E6
:10086000022911D1BDF90420BDF90010521A121A43
:1008700002EBD27201EB620506E0BDF9005003E025
:10088000BDF904100D1A6D1C2649401E28444D84E4
:10089000ADF80C00ADF808508C8404EB0800401E45
:1008A000ADF80E00ADF80A4002AA3946059805F0E9
:1008B0001BFA3946059805F08CF90599084405900E
:1008C00000F0ACFB044405A804F0A8FC002801D10A
:1008D000002EB6D109B0BDE8F08F2DE9FC411F46CE
:1008E000904606000D4617D0002465B1084606F074
:1008F00005FA040007D002462946684604F0B7FC12
:10090000684606F0FBF93B46424629463046FFF76B
:1009100047FF204606F0F2F9BDE8FC8147F6FF7379
:10092000DBE7000084AC00202DE9FC410F4F0346BB
:10093000386C4518796C8418CE18ADF80050ADF8B5
:100940000440ADF80260ADF80660684603F0CAFFE7
:1009500007E0B86C2246314603682846984703F002
:100960009AFF0028F5D1BDE8FC81000084AC00208E
:100970007CB50E4B1C6C0444586CADF80040461816
:100980008518ADF80440ADF80260ADF80650684631
:1009900003F0A8FF06E02A463146204605F0F6FCA3
:1009A00003F079FF0028F6D17CBD000084AC002064
:1009B0000B4810B50068002410B1804700B1012435
:1009C00004F0D7F800B10124204610BD10B5002472
:1009D00000E00124FFF7ECFF0028FAD1204610BD0B
:1009E000A80600202DE9FC410F4D2C6C2718686CDF
:1009F000A5184618C418ADF80070ADF80450ADF84D
:100A00000260ADF80640684603F06CFF07E023463D
:100A10002A463146384605F068FB03F03CFF0028C3
:100A2000F5D1BDE8FC81000084AC00201E49002205
:100A300048684A6070471C494A68002A00D14860EB
:100A4000704700B5FFF7F2FF0028FBD100BD164A42
:100A50000832C2E90001144901200860704770B5EE
:100A6000114A0020116800290FD0491E02F1080424
:100A70001160D4E90051284606F000F860680128AA
:100A800002D12846FFF7D7FF012070BD70B50C4694
:100A9000054605F0F3FF002804D121462846BDE8AD
:100AA0007040D4E770BD0000600600200748007D5C
:100AB00070470648407D7047044A0146107D117515
:100AC0007047024A0146507D5175704784AC002042
:100AD00005F03ABC05F044BC024A916900B190614E
:100AE0000846704784AC002030B40346604C0A4688
:100AF000401C07D0501C05D06068411C02D0A16882
:100B00004D1C02D14FF0FF300146C4E9013230BC28
:100B100005F020B85648C0687047554800697047CE
:100B20005348AA212430016040F60A714160816077
:100B3000C821C16070472DE9F84F1F460A9D9046B5
:100B4000894604004FF0000C0FD040F23F16781B8E
:100B500000D54042142805DBB9EB080000D540421F
:100B6000142805DA0120BDE8F88F40F2DF16EEE721
:100B7000424649466046009500F06FF8DFF8F0A065
:100B80003B460AF1240A42464AF8340049463046B8
:100B9000009500F062F80AEBC40148600020E2E72B
:100BA000334B10B5243353F8304003EBC0000C60D6
:100BB0004068106010BD70B52D4D2D4C2435D5E921
:100BC0000010814202DAC4E9051001E0C4E9050120
:100BD000D5E90210814202DAC4E9071001E0C4E954
:100BE00007012078B8B107F03DFFE06007F038FF5B
:100BF0000C3494E807000C3C904208DBA269904258
:100C000005DCE269914202DB226A91420BDD4FF082
:100C1000FF3001461CE007F0B9FF206107F021FF1B
:100C20002078401C17E02A68801A00EB4013C3EBC1
:100C300040206B689A1A90FBF2F3AA68881AC0EBFE
:100C4000801101EB0020E968891A90FBF1F1184648
:100C5000FFF74AFF0020207070BD10B5401A029CBB
:100C6000E41A4443501A94FBF0F0184410BD0000FD
:100C70007006002001460078020616D50622B2EB67
:100C8000501F03D1C006400D49780BE00E22B2EB95
:100C9000101F0BD14A780007000C02F03F02897840
:100CA00040EA821001F03F0108437047012070477D
:100CB000007801060BD50621B1EB501F01D10220AF
:100CC00070470E21B1EB101F01D1032070470120A6
:100CD0007047C10A01D003207047C00901D002202B
:100CE00070470120704770B504460D460846FFF76F
:100CF000F0FF012812D005F03F0141F080010228E9
:100D00000ED0032809D1E02242EA15322270C5F341
:100D1000851242F080026270A17070BD257070BDB6
:100D2000C02242EA95122270617070BD02490148EA
:100D3000C8617047D4FA000884AC00202DE9F04760
:100D400081464FF0FF380020B04F1BE037F811000C
:100D5000518806EB4605014437F91500411A0CB2DB
:100D60004C450EDA6CB1AA49014407EB4500B0F9D5
:100D70000220081B06F010FE37F81500001B27F8AC
:100D80001500304600EB400107EB41021679002EBA
:100D9000DCD100EB400207EB410137F91220B1F939
:100DA00002101144C1F5A0524A4500DB80460FFAFB
:100DB00088F0BDE8F0879748A12104224160816056
:100DC0004FF4A051C18101820021016081818F48CF
:100DD00042800180017190490120087070472DE91F
:100DE000F041044600F00CF9E41CDFF8288224F0FE
:100DF000030004B2B8F90E00A04254DB834E012078
:100E000000EB400106EB4101498851B1401CA2288A
:100E1000F6DB0025EDB3204600F0C8F8411C02D0F7
:100E200006E005B2F6E72046FFF788FF411C3AD0FE
:100E300000EB400106EB410336F81120598805EB21
:100E4000450C571806EB4C021979548026F81C7093
:100E5000117121B101EB410106EB41014D7150715E
:100E60001D71D8F800004146401CC8F80000D8F8B1
:100E70000400401EC8F80400D8F80820824200DDB3
:100E80008860888920448881C889001B00B2C88195
:100E900000E008E0B1F91020824201DDA8F810005E
:100EA0002846BDE8F0810020FBE7002800D096E747
:100EB0007047002806D0554900EB400031F910007A
:100EC00053490844704710B500F09AF85148B0F9FA
:100ED0000E0010BD70B5002400F092F800204B4DBC
:100EE0000DE035F812005A88104401EB410235F844
:100EF0001220101A00B2A04200DD0446084600EBA2
:100F0000400205EB420319790029EAD100EB4000C9
:100F100005EB420135F91000B1F902100844C0F5A3
:100F2000A05000B2A04200DD0446204670BD00285B
:100F300006D0364900EB400001EB4000B0F902005A
:100F40007047002801D000F00AB8704710B5044679
:100F5000B0F90000FFF7F5FF0020208010BD2B4BFB
:100F600000EB400010B503EB4001B1F9020000288E
:100F70001BD0284AD4890444D4819489201A9081B2
:100F8000002048800879497901EB410403EB4404CF
:100F9000207120B100EB400003EB4000417150682C
:100FA000401C50601068401E106010BD30B500211C
:100FB000164D0CE035F91330B4F90240234402EB2E
:100FC000420435F91440E31A834214DA114601EB66
:100FD000410305EB43042279002AEBD101EB4102E6
:100FE00005EB430335F91220B3F902301A44C2F578
:100FF000A052824201DB08B230BD4FF0FF3030BD5D
:1010000005480078002800D1D5E67047A4A8002044
:10101000A494002070AC0020A40600201E48806923
:10102000407D704700B5FFF7F9FF1B498A8C1044DB
:101030008884088C488400BD10B504460A280ED068
:101040000D2C0FD01448806901682046884713484A
:101050000168002906D02046BDE810400847BDE8D9
:101060001040DFE710BD0C49002091F82C1001F072
:101070000C020949042A896906D0082A01D00C2AE1
:1010800001D1087D40087047087D401E7047024925
:10109000896949680847000084AC0020B006002038
:1010A0002DE9FC5F15460746DFF8A0832844019030
:1010B000D8F848201C460E4621445268894690477D
:1010C000781B0090D8F84820494652689047D8F8D5
:1010D00048207119381952688A4681469047D8F8D5
:1010E0004820711B8B46526848469047002C1AD006
:1010F000D8F84820311B0E46526845460198904763
:10110000AA6C3146009852689047AA6C381B514629
:10111000526804469047AA6C59462046526802B06D
:10112000BDE8F05F1047BDE8FC9F2DE9F047814620
:10113000884640F2C32050434FF47A7190FBF1F699
:1011400002FB02F002EBD27100EB610714460023B0
:1011500041464846761CFFF7A3FF012513E005FB37
:1011600005F004FB0400B84206DD23462A4641464A
:101170004846FFF795FF641E23462A4641464846E7
:10118000FFF78EFF6D1CB542E9DDBDE8F0877CB549
:101190001446AE4A136C1E18506C4518301BADF83F
:1011A00000003019ADF80400281BADF80200281922
:1011B000ADF80600684603F095FB06E02246294696
:1011C0003046FFF7B2FF03F066FB0028F6D17CBD86
:1011D0002DE9F84F06460F4640F2C32050434FF426
:1011E0007A7190FBF1F000F1010802FB02F002EBD2
:1011F000D271DFF858B200EB61000090DBF84810C4
:10120000144632440B68301B39469847012530E0BC
:1012100005FB05F004FB04010098814218DD4445FC
:1012200015DDDBF8483006EB0509A6EB050A1B685F
:10123000A9F1010239190AF101009847DBF8483099
:10124000A9F10102391B1B680AF101009847641ECD
:10125000DBF8483032197919301B1B6892468146F9
:101260009847DBF848305246791B1B684846984738
:101270006D1C4545CCDDBDE8F88F70B5734B154648
:101280001A6C1418586C4618002003F02BFB06E06B
:101290002A4631462046FFF79BFF03F0FCFA002860
:1012A000F6D170BD2DE9F84F824602FB02F01E46D2
:1012B00000907043894600FB06F101EB500B144689
:1012C000002525E0009A05FB05F0424306FB06F1E8
:1012D00000E0641E04FB04F001FB0020002C01DD93
:1012E0005845F6DC594B0AEB0402AAEB04009B6C50
:1012F000904609EB05011B68074698473DB1534BE3
:101300004246A9EB05019B6C38461B6898476D1C4B
:10131000B542D7DDAFE72DE9FC4117464B4A1E46E3
:10132000136C1D18506C4418E81BADF80000E81948
:10133000ADF80400A01BADF80200A019ADF806003E
:10134000684603F0CFFA07E033463A46214628467E
:10135000FFF7A8FF03F09FFA0028F5D1BDE8FC8154
:101360002DE9FF4F144683B002FB04F1019159436C
:101370009A46804601FB0AF000EB5100A146002589
:1013800002903AE001D1002410E0019A05FB05F03B
:1013900042430AFB0AF100E0641E04FB04F001FB77
:1013A0000020002C02DD029B9842F5DC1DB304985E
:1013B000A8EB0402471BA8EB0900791C83463B46B7
:1013C0000092FEF75AFF0498009A4619711E58467B
:1013D0003346FEF752FF3B46791C08EB040208EB4C
:1013E000090793463846FEF748FF33465A46711EB2
:1013F0003846FEF742FFA1466D1C5545C2DD07B0D9
:10140000BDE8F08F2DE9FC411746104A1E46136CCB
:101410001D18506C4418E81BADF80000E819ADF831
:101420000400A01BADF80200A019ADF80600684644
:1014300003F058FA07E033463A4621462846FFF7BC
:101440008FFF03F028FA0028F5D187E784AC00204D
:101450002DE9FC4107461C4615460E46042004F0C3
:1014600001FE80462D48016C406C0F4406440D443B
:101470000444ADF80070ADF80450ADF80260ADF86A
:101480000640684603F02EFA07E023462A46314616
:10149000384604F02AFE03F0FEF90028F5D1404654
:1014A00004F0E0FDBDE8FC8110B50021084604F021
:1014B0007BFA40F6FF725042BDE8104013460146E9
:1014C000C6E770B516492E20087007F005FC134CCE
:1014D000251D201D256104F07DFF1248A0641248DF
:1014E0002561A0610120207503F076FCA087032010
:1014F00084F84C006FF0704020636063002004F0BB
:1015000023FF6FF07F4004F02BFF0848E06104F0F8
:10151000FEFE044603F08EFB204670BD84AC002026
:10152000A5060020E4FA0008F8060108BC710108CD
:101530002DE9F043C78C044687B04FF00009C7F38C
:101540000025084605F0DCF808B12E4600E002262A
:10155000206CFFF7C1FAB4F9480010B1FFF7A9FCFD
:101560008146684604F002FADDE90001CDE9020196
:1015700045B3002004F0F4FEBDF90630BDF90420A7
:10158000BDF90010BDF90200FFF728F8012202A9F9
:10159000084603F095FE04EB8608D8F8280004F00E
:1015A000D3FED8F8340004F0DBFE02A805F0A6FB59
:1015B000FFF77AFF022E0DDAB4F84C0040B13DB1CE
:1015C00001200BE0206A00688047206A4269DEE75C
:1015D000002003E0B4F84E0000B1022004EB40000C
:1015E0000022B0F94A00114604F023FFDDE90201B0
:1015F000CDE9040125B10122114604A804F042FA04
:10160000022004F09FFAB4F9442004A94846FFF7E9
:1016100085F9F80706D0002004F0A2FE02216846F2
:1016200004F038F8002005F069FB07B0BDE8F0834E
:1016300070B5B0F9046005463046FFF73AFC044641
:101640002946304602F076FB002840D028680B2857
:101650002CD00C2802D00F2834D122E0A9683046C3
:10166000C9B1097A0029E18C4FEAC1510FD0002994
:101670002DDB35464FF4807102F032FB217F880765
:1016800025D52846BDE87040012105F0EEB90029B6
:101690001DDA022200E003222146BDE8704000F07E
:1016A00092B831462046BDE8704041E704F1480059
:1016B000FFF74CFC04F14A00FFF748FC04F14C0032
:1016C000FFF744FC2846BDE8704003F05CBA70BDEB
:1016D0002DE9FF410C46DDE90AC13026AFF2AF0724
:1016E0000D9D89B2CDF800C00396CDE901172146C2
:1016F00002F095FF04000CD0FFF7DBFB064610223A
:10170000294602F011FB20223B4906F1280006F091
:1017100043F904B02046BDE8F08170B50D460400E1
:101720000CD0FFF7C6FB2946483003F0D6FD002851
:1017300004D02046BDE8704002F06FBF70BD70B5A8
:101740000D46040007D0FFF7B4FB05642046BDE852
:10175000704002F062BF70BD70B516460C460500C1
:101760000BD0022C09D8FFF7A4FB00EB84008662A3
:101770002846BDE8704002F050BF70BD70B51646F7
:101780000C4605000BD0022C09D8FFF792FB00EBAA
:10179000840046632846BDE8704002F03EBF70BD3D
:1017A00002F085BA4FF480720029114601D002F090
:1017B00097BA02F0A7BA00294FF0100101D002F049
:1017C0008FBA02F09FBA70B50C46154606464FF424
:1017D000807102F097FA207F800703D529463046B2
:1017E00005F043F9022D05D1B4F92400BDE870409D
:1017F000FFF721B970BD0000C006002070B5164685
:101800000C46054619463046049A04F046FE024648
:1018100021462846BDE8704004F0F4BD08B5002319
:101820000093FFF7EBFF08BD7FB516460446B0F9FD
:101830000820408A1D460023CDE90013CDE90202AD
:10184000B4F90C00B4F910304119B4F90A00B4F934
:101850000E203044FFF73CFF05466168FFF75DFF4F
:1018600004B0284670BD00003D48006870473C4AFF
:1018700001461068116070470EB5002201922A22BD
:1018800002910092694602F040FD0EBD0EB50021A6
:10189000019102912A210091694602F036FD0298D9
:1018A0000EBD2DE9F8431F460446DDE9080300920A
:1018B0000D460246266839462046B047074603F0E3
:1018C0007FFA8046618A384602F00AFA384605F007
:1018D00035FA404605F032FA002609E0009654F841
:1018E00018CF00231A4641462046E04705F026FA65
:1018F0006D1E002DF2DC384605F0A2F91E2140468F
:1019000005F022F93846BDE8F88370B50C46054667
:10191000FFF7BCFF10B10121C0E900142846BDE863
:10192000704002F01BBD1CB5002100910191694679
:10193000FFF7A2FF04E0FFF749F808B907F0BAF98A
:1019400000980028F7D001981CBD7CB5DDE906455C
:10195000CDE90045FFF7A5FFBDE87C40E3E70000C7
:10196000E006002070B50D460446FFF7A2FAB0F875
:101970005C104FEA017225B1002A0DDB41F008012D
:1019800003E0002A08DA21F00801A0F85C102046E4
:10199000BDE8704002F041BE70BD10B501460020A8
:1019A00091F82620920607D5B1F94000002803D10E
:1019B000886A03F0ECFF801C10BD2DE9F05F4FF04A
:1019C00000080C460546C146B0F9426003F07AFAB9
:1019D0008346284603F07DFA824695F82600800665
:1019E00001D5B5F944902846FFF7D7FF0746B5F96A
:1019F0004E0010B103F080FA80462780A4F80280E0
:101A0000ABEB060006EB0901A680401ECA19208137
:101A100002EB0801E180AAEB0601491E6181A68163
:101A20002082F019E681401E6082B5F9180022E09C
:101A3000FFF73FFAB0F90010B5F90020B0F9043013
:101A4000891A9A1AB0F90230B5F90270DB1BB34259
:101A50000FD1037F1B0606D5B4F910208A4208DB9C
:101A6000491E218205E0B4F90C10914201DC521CA0
:101A7000A281B0F91A000028DAD1BDE8F09F2DE963
:101A8000F04F8BB0044602F067FE06464FF0000BA5
:101A900003F026FA0546304603F02EFA0646B4F95E
:101AA000428069462046FFF788FF94F85C00C0F347
:101AB000C007B4F9500010B1FFF7FBF98346BDF839
:101AC0000400ADF81400BDF80800ADF81800BDF82A
:101AD0000E00ADF81600401CADF80E00BDF80C006D
:101AE000BDF81210401CADF80C00BDF81000ADF8A8
:101AF0001A10401EADF81000A06AFEF7EDFFB4F911
:101B00005A3003A907AA5846099103F021FBBDF9F1
:101B10000010002001EB080A02F0E4FE002844D087
:101B2000AAF1010904EB8707F86A04F00DFC786B51
:101B300004F016FC07AB05A95846099A04F04EFDBF
:101B4000FE4804F00DFC0021A8F101036A1E0846BE
:101B5000FEF748FFBDF904200021731E0846521EFF
:101B6000FEF740FFBDF90800731E6A1E0021401CED
:101B7000FEF738FFBDF90A10731E6A1E0020491CCB
:101B8000FEF730FFB4F944106A1E01EB0903514619
:101B90000020FEF727FFB4F94200022801DB02F023
:101BA0004EFA02F078FE0028BED10BB0BDE8F08FEF
:101BB000002800D0D6E670472DE9F041B0F9046066
:101BC000044688B03046FFF774F90546D4F808801B
:101BD000476E05E079682046884700281ED13F6897
:101BE000002FF7D12068172848D00CDC0D2878D0BA
:101BF00004DC0B2873D00C2818D118E00F2812D061
:101C0000142813D12FE01F284AD0212876D0262867
:101C100037D02A280AD1A06818B1286608B0BDE8D4
:101C2000F081286E58E02846FFF729FF85E0A46878
:101C3000002CF3D0207A0028F0D095F85C00000743
:101C400002D4304603F0DEF9304603F075F895F81B
:101C50005C00C006E2D5BA482146B0F90020304603
:101C600004F0A6FFDAE769462846FFF7A6FE0199C9
:101C7000C8F800100299C8F80410CFE7B5F94C0075
:101C80002AE0A0680228C9D1ADF81A60A0680790C0
:101C900027200590B4F9060005A902F036FBBDE740
:101CA000A068012804D000213046FFF781FFB5E786
:101CB000B5F95E0004F0B4FE20B1B5F95E0003F0A2
:101CC000A1F904E035F94C0F04F0BAFF6882012154
:101CD0003046FFF76DFF0020A0609FE701E028E09D
:101CE0000CE095F85C00000727D4A0688068F8B184
:101CF000007AE8B1304603F085F91EE0A768BFB16D
:101D0000B7F90200314604F0F6FC20B1012130465B
:101D1000FFF728FE11E000213046FFF723FEB7F958
:101D20000000314604F0D6FC10B13888A5F85E00FA
:101D300003E005F15000FFF709F92146304601F0B4
:101D4000F9FF00288ED0204602F01DFF66E72DE93E
:101D5000FE43B0F904700446384603F078F8804634
:101D6000FFF7A7F80546866C2068172857D008DCCF
:101D70000E283CD00F280BD0142850D015283DD168
:101D80004DE01F2819D020282AD0222836D144E03F
:101D9000E86B6FF07041884203D004F0D5FAFFF78A
:101DA00083FB002E07D094E807008DE80700ADF80C
:101DB00004706846B047BDE8FE83A0680028FAD0EA
:101DC000B5F95E0020B1B84202D003F01BF904E07F
:101DD000384604F035FFA5F85E000020A060EAE771
:101DE00003B021464046BDE8F04301F0A3BFA06820
:101DF0004168002902DD0068092808D07EB1A4F8F6
:101E0000048003B02046B446BDE8F043604738463E
:101E100004F016FFA5F85E00CDE7E86BDEE720468C
:101E2000BDE8FE4302F0AFBE10B50446B0F84C006A
:101E300086B018B9B4F84E00002829D0694620466B
:101E4000FFF7BBFDB4F94C00A8B1BDF90620BDF900
:101E5000041004F0E7FDBDF90A00BDF90610421AAE
:101E6000BDF90800BDF90410521C411AB4F94C0028
:101E7000491C04F027FFB4F94E00002808D0BDF932
:101E80000610BDF902208A1ABDF9041004F0CAFD3B
:101E900006B010BD70B50D4604000CD0FFF709F870
:101EA0002946503003F019FA002804D02046BDE836
:101EB000704002F0B2BB70BD2DE9F04F89B013AD98
:101EC000129E95E8100D44F480574825DFF874C041
:101ED000DDF85C90BCB200960395CDE9014C02F0B0
:101EE0009EFB060048D0FEF7E4FF04463022514630
:101EF00001F01AFF12492022091D04F1280005F003
:101F00004BFD0025A4F85A50C4F84890A4F85C8012
:101F1000A4F85E50A4F84E5004A920466566FFF769
:101F20004CFD094841F2827100960395CDE90110FC
:101F3000BDF91A00BDF91610431A07E0AAAAAA00B3
:101F4000E4060020B91B00084F1D0008BDF9182049
:101F5000BDF914005B1C121A521C02F060FBA4F8BD
:101F60004C0042F20400074202D1304603F0EFF881
:101F700059463046FFF78EFF304609B016E670B579
:101F80000C4605000CD0FEF794FFB0F95A10A142A0
:101F900006D0A0F85A402846BDE8704002F03DBB8C
:101FA00070BD10B50C4600280AD0FEF782FF30F84D
:101FB0005C1F14B141F0100101E021F0100101801B
:101FC00010BDF0B587B015461C46428A0DF1080CCD
:101FD0000C9FB0F9083046688CE8CC000022CDE9AF
:101FE0000012B0F90C10B0F91030B0F90E20B0F9B1
:101FF0000A0021442844FFF75FFF07B0F0BD2DE938
:10200000F0410D465FEA000843D0FEF752FF044658
:10201000C08C014615B140F0200701E020F02007F8
:10202000B94236D0E7842046FFF7FEFEB4F91850D7
:102030001CE02846FEF73DFF0646B0F90200B4F961
:102040000210401AB4F9421081420DD1B4F94C008B
:10205000A84209D094F826008006284602D504F04C
:102060006DFE01E004F0BAFCB6F91A50002DE0D183
:1020700094F85C00400607D5B806404602D504F047
:102080005DFE01E004F0AAFC4046BDE8F04102F02C
:10209000C4BABDE8F08100002DE9F04105460C46C8
:1020A0000026B0F93800FEF704FF0746E98F03F079
:1020B00090FDC219944204D2111B204603F09AFDF0
:1020C00006463046BDE8F081F7B50D4601F0EDF863
:1020D000064695F87400800632D528460299FFF727
:1020E000DBFF074695F878203146029803F01FF988
:1020F0000446B84222DB95F8780068B13C46214698
:10210000029801F0E7F805463946029803F061FDB0
:102110000299084402900CE0029803F072F8044619
:102120000CE02A20FEF7B3FF05440CB1B54205DCF4
:10213000641C02A803F03AFD0028F2D12046FEBD3F
:1021400095F878203146029803F0F1F8E7E72DE999
:10215000F04115460C46074601F0A7F8014694F8F1
:102160007400800615D529462046FFF795FF0646E0
:102170002A4621463846FFF7A7FF0446014628466F
:1021800003F027FDB4429DDA295C0A299AD1401C4C
:1021900098E794F878202846BDE8F04103F02AB982
:1021A00010B50C4690F87410890603D52146FFF748
:1021B00073FF30B1204603F0EDFCBDE81040FEF7A0
:1021C00066BF2A20F9E72DE9F041804614460D4606
:1021D000B1F93800FEF76DFEB5F852100746A0B20F
:1021E000A14218D008D2B5F85020A5F8520002EB51
:1021F0000706A4EB010409E03E46A5F8520005E0FD
:10220000324629464046FFF7A2FF0644641EF7D235
:10221000F01BA5F85000B5F85000384452E72DE9FE
:10222000F04788468146144600251946104603F0BB
:10223000D0FCB8F85010271881421EDA0C44B8F8C8
:1022400052501AE0224641464846FFF73DFF0146FC
:10225000204603F0BEFC0619224641464846FFF7D9
:1022600076FF0444B74207D8B7420AD1A64208D144
:10227000207830B16D1C04E06D1C207808B1A742B5
:10228000E0D82846BDE8F0872DE9F047054691F8EB
:102290007500994692460C4600072ED500273E460B
:1022A000206FFEF719FCB4F93800C8B1FEF701FE43
:1022B000B4F84A10B4F8467001EB00083A462146DB
:1022C0002846FFF780FF054608E029462046FFF72D
:1022D00067FF0644284603F059FC05444545F4D3FE
:1022E000A4F84C60FEF79AFE7843A4F84E0094F8E8
:1022F000750020F0080084F8750034F84C1FCAF807
:1023000000106188C9F80010BCE77CB50C46054692
:102310006B4601AAFFF7B8FF206F03F03CFB009962
:10232000002391FBF0F11A4604F15800009104F0EB
:1023300088FA1E231A4604F16400019904F081FA18
:10234000284601F018F87CBD2DE9F047814691F848
:1023500075000C46400736D50020A4F84200208FB7
:1023600058B3206FFEF7B8FBB4F93800FEF7A1FDB3
:102370000646324621464846FFF7A6FE804600251F
:10238000374608E039462046FFF70AFF054438463D
:1023900003F0FCFB0744B8F10108F3D2B4F84200A3
:1023A000A84201DAA4F84250324621464846FFF7D7
:1023B000CEFE064430780028DBD194F8750020F07A
:1023C000040084F87500B4F842005BE72DE9F041A1
:1023D000804691F875000C46800729D5B4F938007D
:1023E0000026E0B1FEF765FD0546206FFEF774FBA1
:1023F0002A4621464046FFF767FE0146284603F07D
:10240000E8FB284403F0C6FB070000D0761C2A46F0
:1024100021464046FFF79BFE0544002FE8D1761C7D
:10242000A4F8406094F8750020F0020084F875006C
:10243000B4F8400046E670B50546FEF73AFD04469E
:1024400001462846FFF7C2FFA0652146284600F056
:102450009FFF206621462846FFF776FF60662146EB
:10246000284600F022FFE06621462846BDE870407D
:102470004BE770B5064691F874000C4600071DD571
:10248000304600F085FF054621463046FFF79EFFA7
:10249000854201DA012500E000252946304602F098
:1024A0001BFEA8420AD094F8750040F00E0084F894
:1024B00075002046BDE8704000F055BF70BD70B596
:1024C0000546FEF7F6FC064601462846FFF7D1FF13
:1024D00096F87400C00617D53146284600F0E5FE90
:1024E000044631462846FFF72FFF844201DA0124D3
:1024F00000E000242146284602F0EDFDA04203D072
:1025000031462846FFF7B5FF2846BDE8704092E700
:102510002DE9FF5FB1F93800DDF838B0994614466F
:102520000D46002852D0FEF7C4FC8046284600F035
:10253000A7FEE98FA14200DD0C46844200DD04467F
:102540002146404603F045FB0746234642462946BE
:102550000098FFF764FE064608EB070A3246294654
:102560000098FFF730FE504525D9B5F84810A14234
:102570000FDB721E29460098FFF725FE044602462F
:1025800029460098FFF7A0FD0146204603F021FBF5
:102590002044A0EB0801404603F02CFB0446014612
:1025A000404603F016FB074623464246294600985C
:1025B000FFF735FE0646B9F1000F01D0C9F80070EB
:1025C000BBF1000F01D0CBF80060204604B0BDE89D
:1025D000F09F3EB5054602A800900C4601AB284688
:1025E000FFF796FFB4F84810814211D00199A4F882
:1025F0004A10A4F848000298A4F8460094F8750020
:10260000214640F0080084F875002846FFF77DFE5B
:102610003EBD2DE9F0410E4607004FF000051CD0ED
:10262000FEF747FC90F878500446B54215D084F880
:102630007860593400F097FE207F40F00600207744
:10264000384600F0BFFE34F8112D4FF6FF7024F825
:10265000480921463846FFF7BCFF284632E52DE9F8
:10266000F05F5FEA02081C460F4683464FF0000207
:10267000ADD4002CABDB388F88B30025386FFEF764
:102680002BFAFEF7CBFC94FBF0F239465846FFF7E5
:102690009AFD0646B7F93800FEF70BFC8246324633
:1026A00039465846FFF710FD04460146304603F010
:1026B00090FAFF493044C9690968884797F874104F
:1026C000890601D548B11DE038B10A2805D0202877
:1026D00018D197F87800012814D1641C12E01AE090
:1026E000304603F057FA814631463846FFF758FD29
:1026F0000544B9F1000F08D0454506DC304603F02B
:1027000045FA0644641E002CEADC5046A6EB0A019A
:1027100003F070FA024639465846BDE8F05F58E7C4
:1027200055E77CB50C4605466B4601AAFFF7ACFDA4
:10273000206F03F030F90099002243182146284603
:102740000093FFF78CFF7CBD2DE9F8438046B1F97B
:1027500038000C46002530B394F8741049072BD488
:10276000FEF7A7FB07460020B4F846600090B4F8D7
:102770004820034621464046521CFFF7C9FE034647
:102780003A4621464046FFF74AFD8046B4F84A00E3
:10279000384403F0FFF930B1464503D094F8741083
:1027A000890601D5012507E00A2805D02028F9D19E
:1027B00094F878000228F5D02846BDE8F8832DE982
:1027C000F04104460D46B4F93820002022B11046ED
:1027D000FEF76FFB05F012F92918B4F84400091A46
:1027E000491C002913DD10314618B4F93800314670
:1027F00003F004FC05004FF000070AD0208F18B941
:102800002846FEF756FB0770A4F844602587012090
:1028100058E4002056E42DE9F0478146B1F938002C
:102820000C4600284BD0FEF744FB8046B4F84A50D3
:1028300005F0E4F8A84242D908EB0506B4F84620B2
:1028400021464846FFF7BFFC074602462146484658
:10285000FFF73AFC0146384603F0BBF9C5193A4682
:1028600021464846FFF773FC3844AE4201D1451B70
:1028700003E0304603F08AF905462946304603F066
:10288000B9F907467119304605F0DAF805214846CE
:1028900004F0EBF8A08FC01BA08794F8750040F0FF
:1028A0000E0084F87500204600F05DFDB4F8483055
:1028B000424621464846FFF7B2FCA4F84600E1E450
:1028C0002DE9F0410C46804617460121204600F0D4
:1028D00099FD68B3384603F065F90646014620467F
:1028E000FFF76DFF20B3B4F93800FEF7E2FAB4F851
:1028F0004A104518284605F081F8421CA8192946B7
:1029000005F04AF83946284603F048F905214046C3
:1029100004F0ABF8A08F401CA08794F8750040F03D
:10292000060084F87500204600F01DFD01202FE40C
:1029300000202DE42DE9F34F8BB00C46086FFEF715
:10294000CBF8FEF76BFB216A814694F877B0D1F89B
:102950001480A06E08EB0B06E56D301A059005FBA0
:102960001980079094F8740000F0010004EB8007D0
:10297000B86A03F0E9FC386B03F0F2FCFEF794FD53
:102980000FFA88F0ADF808600890ADF80A000B98CF
:1029900002F0A6FAA0EB0800A0EB0B00401EADF879
:1029A0000C000B9802F0A8FAA0EB0800401EADF84E
:1029B0000E0002A804F0A2F90990208F00285AD036
:1029C000002621460B9800F070FC0A9021460B98D7
:1029D00000F0DEFC8246B4F93800FEF76AFA0746DA
:1029E0000598ADF800000898ADF802000A9800EBD1
:1029F000080101EB0B00401EADF80400E08861887F
:102A0000401A401CADF80600B4F85400A84204DC9B
:102A1000B4F8561009B10F440646B4F85400A84261
:102A20000AD0AE4208D1B4F93800FEF742FA381A9B
:102A3000A4F85600A4F85450AE420EDB711B514569
:102A40000BDC6B463A4621460B9800F051FCBDF872
:102A5000021001EB0900ADF802003A4621460B983E
:102A6000FFF775FB07443846761C03F093F810B166
:102A7000711B5145D1DD0B9803F0A4FFB0B306AB39
:102A800004AA21460B98FFF7FFFBDDE90410084478
:102A9000ADF80000DDE906100844ADF8020021465B
:102AA0000B98FFF751FE78B1B4F9380002E000004E
:102AB00084AC0020FEF7FDF9B4F84A10014420462A
:102AC000FFF76EFB014600E00221BDF90000491E40
:102AD00001440AB2BDF90210A9F101030B44ADF89B
:102AE00004201BB2ADF8063002F072FF099804F022
:102AF00005F9204601F0FBF90DB0BDE8F08F2DE996
:102B0000FC410E4607460025FEF7D3F90446132E76
:102B100023D00CDC102E32D004DC082E4CD00D2E2D
:102B20007DD16DE0112E0CD0122E78D123E0A6F1CC
:102B30001700082873D2DFE800F0322880809780E1
:102B4000574E01466B4601AA3846FFF79DFB206FA2
:102B500002F021FF00990B1A0AE001466B4601AA18
:102B60003846FFF791FB206F02F015FF00994318DC
:102B70000093019A1BE0B4F84820014653E0B4F8F2
:102B8000482001463846521E4FE06B4601AA2146B6
:102B90003846FFF779FB47F6FF72009B07E06B466C
:102BA00001AA21463846FFF76FFB009B0022214611
:102BB0003846FFF754FD56E094F87400C00753D12F
:102BC000B4F84820E08F82424DD921463846521E43
:102BD000FFF7FFFC03E094F87400C00744D12146DE
:102BE0003846FFF718FE3EE094F87400410702D41F
:102BF00040F0040001E020F0040084F8740032E0AA
:102C000094F87400C00713D10A2221463846FFF712
:102C100057FE40B394F87400800609D500E00CE03C
:102C2000B4F8482021463846521CFFF7D2FC1AE07F
:102C300021463846FFF775FD15E094F87400C0078B
:102C400012D1202E10D321463846FFF77DFD18B152
:102C500021463846FFF7DFFD324621463846FFF76A
:102C60002FFE0028DAD10125384600F0ABFB2846BC
:102C7000BDE8FC812DE9FE43B0F90460054601463C
:102C8000304601F057F8002860D03046FEF711F9C1
:102C9000044628680E287CD006DC052818D00B28AE
:102CA0007ED00C2813D153E00F284BD0252802D01A
:102CB00026280CD119E094F8750040F00E0084F835
:102CC0007500204600F04FFB3046FFF7B4FB7CE078
:102CD00094F8750040F00E0084F87500204600F06E
:102CE00042FB304600F065FB6FE0A868052802D083
:102CF00006286AD122E0304602F0B4F80146B5F960
:102D00000600814205D1694602F0AFF80198E065FE
:102D10000CE0304602F0A3F80146B5F90600814206
:102D200053D1694602F0A1F80198A066304601F03F
:102D300074FC0A21304603F098FE46E0304600F06D
:102D40001AFB42E021463046FFF7F4FDBDE8FE8362
:102D5000B146AE680EB3307AE8B1206AA16E476919
:102D60003068084494F87710C01BA0EB0108206F6E
:102D700002F011FE7168E26D02FB0010C31B4246B7
:102D800021464846FFF76BFC484600F012FB012144
:102D900004E00AE004E0022100E003214846CAE71B
:102DA00004F13800FEF7D2F80FE0A8684168002966
:102DB00007DD008881B23046FFF7A1FE0028C5D1AB
:102DC00003E094F87400C007C0D0284601F0DBFE91
:102DD000BCE72DE9F04789465FEA000A50D000269B
:102DE0003546B04637465046FEF763F80446B0F91C
:102DF000380078B1FEF75DF80546E18F02F0E9FE94
:102E00004719384602F0FDF905460146384602F0FA
:102E1000E0FE0746B9F1000007D002F0F2F90646DD
:102E20000146484602F0D5FE8046711B204600F060
:102E3000E9FA002824D0A8EB07012046FFF7BFFCE1
:102E400000281DD0B4F93800FEF733F80546E18FAD
:102E500002F0BFFE2844B9F1000102D004F0F0FDF9
:102E600001E000210170E28F21465046FFF7B1FBDF
:102E7000504600F0A7FA14F8750F40F007002070D4
:102E80001DE52DE9FF5F0546DDE90E49DDE911A6E7
:102E900042EA030088462843DDF84CB0109F50EA10
:102EA00008000FD16946204601F06EFFBDF904000D
:102EB000BDF90010421ABDF90600BDF90210521CFE
:102EC000431A5B1C5C21DFF804C41FFA89F0CDE9CA
:102ED00002C1CDE900404146284601F0A0FB0500B3
:102EE0003FD0FDF7E6FF04461022514600F01CFFDC
:102EF000F74A002002F1080304EB800152F820C0D9
:102F0000C1F828C053F820C0401CC1F830C00228C6
:102F1000F2DBEF480121001F00682067002084F8E1
:102F20007470A4F84800A4F84A0084F87710608709
:102F3000E087A4F844002087002E0BDD30B202F0B9
:102F400063FA18B1A4F84460208703E0284601F032
:102F500005FA002559462846FFF73BFF2846FFF7AC
:102F6000AEFA04B02846BDE8F09F02004FF0000022
:102F700001D01046C3E570472DE9F04115460E46D5
:102F800000281BD0FDF795FF040017D0B4F93800D6
:102F9000FDF78FFF0746E18F02F01BFE074438461E
:102FA00004F02CFD0446681E844200DD04462246DF
:102FB0003946304604F0F0FC0020305528E42DE975
:102FC000F04115460E46002817D0FDF772FF0400A9
:102FD00013D0B4F93800FDF76CFF0746E18F02F01B
:102FE000F8FD0446681E844200DD04462246394648
:102FF000304604F0D1FC0020305509E40121FFF7F0
:1030000008BB0221FFF705BB0021FFF702BB04222A
:1030100000F0E5B9012200F0E2B970B50E460500F6
:103020000CD0FDF746FF044620223146284600F02A
:10303000D6F914F8750F40F00E01217070BD08220A
:1030400000F0CDB9102200F0CAB970B50C460500E9
:103050000CD0FDF72EFF90F87710A14206D080F833
:1030600077402846BDE8704000F0A3B970BD70B548
:103070000D4606000ED0FDF71CFF0446006FA84267
:1030800008D044F8705F304600F09CF9607940F059
:103090000E00607170BD70B516460C4605000BD071
:1030A000022C09D2FDF705FF00EB8400866228465A
:1030B000BDE8704000F086B970BD70B50D460400E3
:1030C0000BD0FDF7F6FE01462A462046FFF781FAAF
:1030D0002046BDE8704001F0A0BA70BD70B516463C
:1030E0000C4605000BD0022C09D2FDF7E2FE00EBE6
:1030F000840006632846BDE8704001F08EBA70BDBA
:103100002DE9F04789465FEA000A4FD00025A8461E
:103110002E462F465046FDF7CCFE0446B0F9380047
:1031200038B1FDF7C6FEB4F83E80414602F051FDCD
:103130000746B9F1000007D002F063F805460146E2
:10314000484602F046FD0646A5EB0801204600F081
:1031500059F900282AD0F11B2046FFF730FB002840
:1031600024D0B4F93800FDF7A4FE80463844074661
:1031700004F044FC421C394608EB060004F00CFC49
:10318000B9F1000004D001463246404604F004FC88
:10319000E5872A4621465046FFF71BFA504600F0C5
:1031A00011F914F8750F40F00700207068E62DE95A
:1031B000F0410D4606001FD0FDF77BFE044628B205
:1031C00002F022F9070012D004F13800FDF7BEFE2C
:1031D00027870020A4F84450E08702462146304665
:1031E000FFF7F7F914F8750F40F00F002070304624
:1031F000BDE8F04100F0E6B8E0E62DE9F0410F4609
:10320000060027D0FDF755FE0446B8B26087E18F6F
:10321000B94200D9E087B4F9380000281AD0002F4D
:1032200018D0FDF746FE0546394602F0D2FC0246AC
:10323000B4F8440090420DDD0021A95421463046E7
:10324000FFF7C7F9304600F0BDF814F8750F40F0ED
:1032500001002070B2E670B5002578B1FDF729FEB7
:103260000446B0F9380048B1FDF723FE0546E18F6A
:1032700002F0AFFC284404F0C1FB451C284670BD99
:1032800010B5044690F87500C0070CD0B4F93800AA
:10329000FDF70FFE01F0B5FFA08794F8750020F050
:1032A000010084F87500A08F10BD1CB50C4669465E
:1032B00003F020FBBDF90400BDF9002094F877105D
:1032C000801A494200EB4100401E1CBD752C0008CD
:1032D0000C07002073B50C46002505E0684602F097
:1032E00065FCFDF7D4FE0544641EF7D228467CBD7C
:1032F0002DE9F0411F4690460C46FEF7E5FE0546D7
:1033000094F87400800625D5002641462046FEF735
:10331000C3FE0446A54201DA2C4600E02E1B2346DC
:10332000002239464046FDF7D8FA21464046FFF7CD
:10333000D1FFB7F90010002E084413D001B2B7F93D
:1033400002202A2002F0B6F8711EBDE8F0412A20C2
:1033500002F0B6B82B4639464046BDE8F04100229F
:10336000FDF7BBBA2AE60021A0F8521020F8501F42
:10337000C1808180704710B50446FDF79AFD00F1C9
:10338000640200F158012046BDE8104000F03CBD49
:103390001CB50C46694603F0ADFA206F02F0FBFA4B
:1033A000BDF90610BDF90220891A491C91FBF0F005
:1033B0008BE710B50446FFF782F82046BDE81040C1
:1033C00001F02BB91CB50446FFF779F86946204691
:1033D00003F090FA6946204601F0F2F875E770B5FF
:1033E00014460D4606000CD0FDF763FD10F8741F5F
:1033F0000DB1214300E0A14301703046BDE87040AB
:10340000E0E770BD70B50D1E04460DDD608F58B14C
:10341000218F002011B12046FFF732FF618F284431
:10342000884201DD002070BD012070BDF0B587B07D
:103430001C461546B0F90860478A43690022CDE969
:10344000043203968DE88600B0F90C10B0F9103004
:10345000B0F90E20B0F90A0021442844FFF711FD0D
:1034600007B0F0BD2DE9FF4704460D46D4E9000141
:10347000CDE9020194F82600BDF90870BDF90A6093
:10348000000702D5BDF90E0001E0BDF90C00A861EE
:10349000A08CFF2812D1B4F9160001F0E3FC68B14A
:1034A000694601F0FCFCBDF90C00BDF9041088422E
:1034B00004D1BDF80000401EADF80C00A08CFE2821
:1034C00012D1B4F9160001F0CAFC68B1694601F0E6
:1034D000E6FCBDF90E00BDF90610884204D1BDF826
:1034E0000200401EADF80E007242794202A802F0BE
:1034F000C9FA94F82600000717D5A0882188BDF8DE
:103500000820401A401CBDF80C10BDF80A30821A81
:10351000ADF80830521EBDF80E30401AADF80C3030
:10352000401EADF80E20ADF80A00BDF90C00BDF943
:103530000810D4F838A0401A00F10109204600F024
:1035400085FB0746204600F091FB052101EB500664
:10355000781F864200D90646B046C8F1000109EB43
:103560004107206C5146784301F040FE064604288E
:1035700000DA0426BE4200DD3E46BDF908002860A0
:10358000A8F101006860A9F101006861A9EB0800D9
:103590002861216CE06BBF1BAAEB0101784301F0AD
:1035A00025FE6968401C0844711EA8600844E86054
:1035B000C5E90776BDE8FF872DE9F04190F82600C0
:1035C000069F1C4616460D46000707D411E0321927
:1035D000311B2846FDF7A8F93D44641E002CF6DA9D
:1035E000BDE8F0813219311B2846FDF7C1F93D4491
:1035F000641E002CF6DAF3E770B58EB0044603A91A
:10360000FFF730FF0CA9204600F0EAFADDE90C01D3
:10361000CDE90101BDF90A00BDF90610411A0320E8
:1036200091FBF0F56D1E95FBF0F04619F61C206B32
:1036300002F096FEDDE90C01CDE901010398ADF839
:1036400004000498ADF8080001A9204600F023FC0E
:10365000E06A02F085FE4FF0FF300090BDF90A00ED
:10366000BDF906102B46401A4210BDF9040081191D
:103670002046FFF7A1FF01A9204600F03AFCA06A0E
:1036800002F06EFE049801A9401CADF804000598F4
:10369000401EADF80800204600F0FDFBDDE90C01FE
:1036A000CDE90101069801A9401CADF80400079876
:1036B000401EADF80800204600F0EDFBDDE90C01EE
:1036C000CDE901010598ADF804000698ADF80800B1
:1036D000206B02F045FE01A9204600F0DCFB01A9A9
:1036E000204600F006FC206B02F03AFE0798ADF889
:1036F00004000898ADF8080001A9204600F0CBFBB3
:10370000E06A02F02DFE01200090BDF90A00BDF92B
:1037100006102B46401A4210BDF90800811B2046B6
:10372000FFF74AFF01A9204600F0E3FBDDE90801AD
:1037300088420BD0401CADF80400ADF80810206B97
:1037400002F00EFE01A9204600F0A5FB0EB070BDF0
:1037500070B50C46050019D0FDF7ABFB026C816B10
:10376000891A00D50021002C00DA00248C4200DDEB
:103770000C46C16BA14209D0C463284600F04DFF3E
:103780002846BDE87040052103F06FB970BD2DE9F2
:10379000F04196688AB00C460746002E62D0307A17
:1037A0004FF4807888B369462046E56BFFF75AFEF0
:1037B000216CA06B421A94F82600000703D5D6E9C5
:1037C0000010C6E9000130680199814201DB6D1EDD
:1037D00026E00299814202DD206C2D1A20E0039937
:1037E000814213DB079900291ADD0899079B01EB39
:1037F000D171A0EB61000199411A491E02FB01F051
:10380000194601F0F3FC05460AE01DE004998142E7
:1038100002DD206C054403E00599814200DB6D1C4C
:103820000121384603F0A2F929463846FFF790FFF8
:10383000E08CC00516D44146384600F051FA207F8E
:1038400080070FD501210AE0E08CC0050AD541466A
:10385000384600F057FA207F800703D5022138460A
:1038600003F003F90AB0BBE670B50D46040007D0BB
:10387000FDF71FFBC06B41192046BDE8704067E7AC
:1038800070BD4FF0FF31EFE70121EDE710B50446C1
:1038900003F082F800F0C1FE204601F0D8FABDE83E
:1038A0001040252103F050B970B5B0F90460054609
:1038B0003046FDF7FEFA04462946304600F03AFA53
:1038C000002856D028680F2810D006DC0B2809D015
:1038D0000C280FD00E2847D112E023283BD02428F3
:1038E00042D122E03046FFF7D1FF3DE02046BDE85F
:1038F000704081E62A4621463046FFF748FF33E014
:10390000A968D1E9000100292EDD102809D011286D
:1039100007D0122801D0132826D13046FFF7B4FF74
:1039200022E03046FFF7ADFF1EE0A868A26B0168F9
:10393000914207D1226C83689A4203D1E26B4368BB
:103940009A4211D0A163816821644068E0633046E7
:1039500000F063FE08E0A968A06B0860A968206C0D
:103960008860A968E06B48602846BDE8704001F0B7
:103970000AB970BD2DE9FF4152EA030CDDE90C459F
:10398000DDE90A671FD16946304602F0A3FF4348CC
:1039900021070CD5B0F90020BDF90400BDF90210D3
:1039A000BDF90630801A5B1A401C5B1C0BE0B0F9B5
:1039B0000030BDF90600BDF90420C11ABDF90000B0
:1039C000491C121A521C4FF0240CDFF8D4E0CDE948
:1039D00002ECBFB2CDE9006700F021FE070029D05C
:1039E000FDF767FA06460022200700D50822E00608
:1039F00001D542F01002FF2D03D0FE2D01D042F080
:103A000010022946304600F08FF92448001D016855
:103A1000B1624068F06221480C300168316340684F
:103A200070636420B0630A2030640020F06338467D
:103A3000FFF72CFF384604B0D2E570B50C46050000
:103A40000AD0FDF736FA816BA14205D0846328467F
:103A5000BDE8704000F0E1BD70BD70B50C460500DA
:103A60000AD0FDF726FA016CA14205D0046428466D
:103A7000BDE8704000F0D1BD70BD70B50C460500CA
:103A80000BD0A168FFF7E9FF28462168FFF7D5FFB3
:103A900028466168BDE870405AE670BD1C070020EA
:103AA000A93800082DE9FF410DF1280898E8F00039
:103AB00003958DE8D000FFF75DFF04B0BDE8F0810D
:103AC0001FB50A0703D5FE2340F28A5202E0FF2306
:103AD00040F28A32CDE90213CDE9000200231A46F2
:103AE00019461846FFF746FF0446062102F0BDFFBF
:103AF00004B0204610BDF0B585B01C461546B0F99F
:103B00000830468A42680296CDE903320227CDE9A1
:103B10000017B0F90C10B0F91030B0F90E20B0F960
:103B20000A002144284402F00EFD05B0F0BD70B536
:103B30000D46040007D0FDF7BCF9C5622046BDE87C
:103B4000704000F06ABD70BD70B50D4604000CD029
:103B5000FDF7AFF92946283001F0BFFB002804D05B
:103B60002046BDE8704000F058BD70BD7CB50D46E4
:103B7000016A4C69D0E90212CDE90012694600F0F1
:103B8000B3FAB5F90000BDF900102044884214DCF6
:103B9000B5F90400BDF90410001B88420DDBB5F92E
:103BA0000200BDF902102044884206DCB5F9060087
:103BB000BDF90610001B884201DA01207CBD0020FF
:103BC0007CBD30B5858800881488281AD5889388EC
:103BD000451B0D805288801A88804C80CB8030BD78
:103BE0001CB590F826000C4600070FD5684601F07A
:103BF000D9F8BDF802002080BDF80600A080BDF80D
:103C000000006080BDF80400E0801CBDBDE81C40E1
:103C1000084601F0C7B810B501F019F902F04EFEE0
:103C20006FF07041884203D1BDE81040FDF71CBE23
:103C300010BD70B50D46044600F0B6FC206A29465A
:103C40004269BDE87040084601F03ABB90F8261082
:103C5000090704D5B0F90610B0F9020003E0B0F985
:103C60000410B0F90000081A401C704790F82610A4
:103C7000090704D5B0F90410B0F9000003E0B0F969
:103C80000610B0F90200081A401C704710B504462F
:103C9000FDF70FF990F826000007204603D5BDE890
:103CA000104001F029B9BDE8104001F019B970B514
:103CB0000C460546FDF7FDF8C18CA14205D0C48431
:103CC0002846BDE8704000F0A8BC70BD10B50100EA
:103CD0004FF0000003D00846FDF7EBF8C08C10BD94
:103CE00070B50C4605000CD0FDF7E3F8C28C34EA41
:103CF000020106D02243C2842846BDE8704000F08D
:103D00008CBC70BD70B50D4604000CD0FDF7D1F829
:103D1000C28C1146AA43914205D0C2842046BDE818
:103D2000704000F07ABC70BD824B1B680362C28495
:103D30008184704738B50C460546FDF7BAF821680E
:103D400016293AD008DC0D292ED0112921D01429AA
:103D500052D0152956D119E01F2931D0202946D03B
:103D6000B1F5407F4ED1016A4A69A1680162486994
:103D7000141A2846FDF79DF8624223461146009426
:103D800002F0C8FC284600F048FC38E0B0F92400F6
:103D900024E090F82600C00634D5A068007A80B3ED
:103DA000284601F02FF92DE0A068806848B3007A1A
:103DB00038B3284600F0C0FF21E0218981841EE04D
:103DC000A168C08C01290BD020F001012846FFF723
:103DD0006EFF0921284602F048FE0020A0600EE098
:103DE00040F001012846FFF762FF0821F2E790F852
:103DF0002600C0F30010F1E7A168FFF71AFF0020CA
:103E000038BDFFE70120FBE770B50C4615460646B6
:103E1000FE2101F005F8214602F048FFFF2130465F
:103E200000F0FEFF2946BDE8704002F03FBF1CB520
:103E300014460A4690F82610090703D56946FFF78D
:103E4000C0FE6A462146104601F024FC1CBD7FB529
:103E50000C4690F826101546090714D5ADF8004019
:103E6000ADF80440ADF80220ADF806306A4602A96C
:103E7000FFF7A7FEBDF90C20BDF90810BDF90A0037
:103E8000FCF752FD7FBD04B029462046BDE87040D6
:103E90001A46FCF76DBD1CB590F82620120704D514
:103EA0000A466946FFF78DFE6946BDE81C40084694
:103EB00001F052BD7CB50C00054603D1684600F008
:103EC00071FF6C4695F82600000705D52246694625
:103ED0002846FFF776FE6C4621462846FFF746FE49
:103EE000002803D0286AC168204688477CBD00218D
:103EF000E0E77CB5054690F826000C46000705D59E
:103F00000A4669462846FFF75CFE6C46214628466D
:103F1000FFF72CFE002803D0286A816820468847D6
:103F20007CBD044A01461068116070470148006872
:103F300070470000300700202DE9F0410568466811
:103F4000002002F00DFA331437B22E142DB21C46A5
:103F50003A4631462846FCF741FB6FF07F4002F0BD
:103F6000FFF9BA1E691C701CFCF7DEFCA21E711C56
:103F7000681CFCF7FDFC374802F0F2F97A1E691C58
:103F8000601EFCF7D1FCA21E711C781EBDE8F0413A
:103F9000FCF7EEBC2DE9F04104684668002002F011
:103FA000DFF92D4802F0DCF925B237B224143A4685
:103FB00029462046FCF7B8FC3614611C28463246D8
:103FC000FCF7D6FC002002F0CBF97A1E691C601CBD
:103FD000FCF7AAFC721EA11C681CFCF7C9FC6FF060
:103FE0007F4002F0BDF93A46691C3046FCF79CFC64
:103FF0003246611C3846FCF7BBFC184802F0B0F9A9
:104000007A1EA91C701EFCF78FFC721EA11C781E64
:10401000BDE8F041FCF7ACBC1CB5684600F0C2FE40
:104020006846FFF7B7FF1CBD10B5044600F0BAFEA6
:104030002146BDE810400222084601F041B91CB5F6
:10404000684600F0AFFE6846FFF776FF1CBD0448E7
:10405000FFF767BF5555550080808000C0C0C00085
:10406000A4710108B0F90010B0F90420914205DCF8
:10407000B0F90210B0F90600814201DD002070475E
:10408000012070477CB50D46FCF713FF0446808B7A
:1040900081071CD540F601010840012817D02846A9
:1040A000FFF7E0FF002812D022462946684601F0BB
:1040B000DEF86846FFF7D6FF002808D0A08B8106FF
:1040C00006D504F108016A46084601F0AFFC7CBD44
:1040D000DDE90012C4E90212FE4940F02000A0838D
:1040E000C888401CC8807CBD0B46B0F90220B0F9DE
:1040F0000010184601F0C6BC1CB5F7490446886B91
:1041000040B10268009240680190F248B0F9120094
:1041100038B904E02046BDE81C4002F065B9B1F9A9
:104120003C00FCF7C6FE6946FFF7DEFF2146684605
:1041300001F080F8684602F057F91CBD2DE9F04106
:104140000E4607463046FCF7B4FE0446007F800763
:1041500011D52146384601F06DF8B4F916500DB16D
:104160002E46EFE7DB480A30B0F90000B04202D13A
:104170000120BDE8F0810020FBE71CB5D54C60783C
:1041800018B1BDE81C40D548B6E7D348B0F93C00AB
:10419000FCF78FFED0E90010CDE90010B4F9121041
:1041A00011B16846FFF7CAFF6846FFF7A5FF1CBDBF
:1041B0002DE9F0470C00064619D0FCF77AFE0546BB
:1041C00000206883EC822046FCF773FE0746287FB8
:1041D00000F00808B7F918005FEA000906D0FCF7FC
:1041E00068FE0446B8F1000F03D008E03E83BDE846
:1041F000F087207F000702D5A5F81A90F6E7B4F9FA
:104200001A7037B13846FCF754FEB8F1000F02D0EF
:1042100007E06683EBE7017F090702D566836F83BA
:10422000E5E70446EBE770B50546FCF742FE0446B9
:10423000B0F9160000280AD0FCF73BFE0646B0F99C
:104240001800A8420ED1FCF734FE408B308370BDBD
:10425000FCF72FFE0146B0F91A00A84202D1608B8C
:10426000488370BD0028F3D170BD70B505469948EC
:10427000B0F9084008E029462046FFF703FF204632
:10428000FCF717FEB0F91440002CF4D170BD70B5E6
:104290000546FCF70EFE0446C08A002807D02846D3
:1042A000FFF7C1FF2046FFF7E0FF0020E08270BD6E
:1042B00070B5894CB4F93C6010B98648B0F9080073
:1042C000A087FCF7F6FD054602F01DF8B5F90000E1
:1042D0002064B5F902006064304670BD70B50546D3
:1042E0007C48B0F908000DE0FCF7E3FDB0F91410CC
:1042F0000446A94205D12846FCF7DBFD808AA0824E
:1043000070BD08460028EFD170BD70B50D460400A1
:104310000AD0FCF7CEFD0169002905D0AC80026906
:104320002846BDE87040104770BD0EB50091ADF84D
:1043300004006946FFF7E9FF0EBD10B50446654865
:10434000B0F9080007E0A04201D1012010BDFCF740
:10435000B0FDB0F914000028F5D110BD70B504000F
:1043600047D0FFF7EAFF002843D02046FCF7A1FD25
:10437000584E05460020B082B6F91010A14200D177
:104380003082B6F90E10A14200D1F0812246B16907
:1043900005E0B1F90430934200D188800968002912
:1043A000F7D10721104602F060FBB5F9180000F0C4
:1043B00021F80B212046FFF7B8FF2046FFF767FFE3
:1043C0002046FFF78BFFA88BC10702D0716A491EF8
:1043D0007162800602D5F088401EF080B088401ED1
:1043E000B0802046FCF7ADFDB6F90800BDE870408E
:1043F0005EE770BD70B5044608E02046FCF759FD45
:10440000B0F91A502046FFF7A9FF2C46002CF4D132
:1044100070BD2AE72DE9FC4190460E4640E0FCF7CE
:1044200048FD848B0546A00738D5B8F1000005D0BB
:1044300002462946684600F01AFF03E0D5E900016C
:10444000CDE900016946304601F02BFB30B3E007AF
:1044500002D0B5F918401FE0B5F90200B6F9021014
:10446000884207DDBDF90200B6F90610401E05E0DE
:10447000F08013E0BDF90600B6F906108842F7DBBC
:104480000CE02046FCF715FD07466A4631462046FB
:10449000FFF7C0FFB7F91A40002CF2D1B5F91A00A6
:1044A0000028BCD1BDE8FC812DE9FC479146884637
:1044B00000263BE0FCF7FDFC848B0546A00733D5C6
:1044C000B9F100000CD002462946684600F0CFFE44
:1044D0000AE000003407002084AC0020E8AC002093
:1044E000D5E90001CDE900016946404601F0D9FA5D
:1044F000D0B1E00702D0B5F9184013E0BDF80400D0
:10450000401CA8F8000001260EE02046FCF7D1FC74
:1045100007466A4641462046FFF7C6FF00B101261E
:10452000B7F91A40002CF0D1B5F91A000028C1D112
:104530003046BDE8FC872DE9FC4190460E4630E050
:10454000FCF7B7FC848B0546A00728D5B8F100001E
:1045500005D002462946684600F089FE03E0D5E909
:104560000001CDE900016946304601F09AFAB0B188
:10457000E00702D0B5F918400FE0BDF80000401E7A
:10458000B0800CE02046FCF794FC07466A463146B2
:104590002046FFF7D0FFB7F91A40002CF2D1B5F949
:1045A0001A000028CCD17DE700224A800A80828848
:1045B0000388D21A8A80C2884088101AC88070473F
:1045C0007FB50D46060023D0FCF773FC848BA10752
:1045D0001ED5D0E90012CDE9001255B1296802912B
:1045E0006968039102A9FFF77FFD02A9684600F000
:1045F00021FE31466846FFF7A1FD002808D040F6AD
:1046000001000440012C04D069463046FFF73AFD12
:104610007FBD6846FFF729FE7FBD0021D0E72DE969
:10462000F84FFB4C8046DDE90A65A089DDF834B01F
:10463000994692460F4605432EB9A08818B104F159
:104640000A00B0F90060701C0DD0DEB13046FCF7F6
:1046500030FCB0F90010B0F9022088441744BAF1D8
:10466000000F02D006E000260CE0B0F90430591A21
:1046700001F1010AB9F1000F04D1B0F90600801A66
:1046800000F101090BF1200000B200F0BDFE009026
:10469000F0B3A088A346401CA0800098FCF709FC5A
:1046A000A0F8008008EB0A014780491E818007EBD3
:1046B0000901491EC1800C9901610446818B43F6B2
:1046C0008F7028400143A183BBF90800009F58B1B7
:1046D000FCF7EFFB80463846FCF7EBFBB8F814100C
:1046E0008182A8F8147001E0ABF808703146009898
:1046F000FFF75EFDA80602D50098FFF7D9FDE80791
:1047000004D0DBF82410491CCBF82410680600E024
:1047100010E002D5009802F065F8A80706D5A08B36
:1047200040F00200A0830098FFF777FF0121009876
:10473000FFF7FBFD0098BDE8F88F2DE9FF410AAFB8
:104740000DF1040897E870000027009788E87000D2
:10475000FFF765FF04B00CE5AE48B0F93C007047C8
:104760002DE9FC41AC4ED6E90201CDE900013069EA
:1047700068B3B089401C00B2ADF800007189ADF893
:104780000210B6F90410884206DD3088ADF800004A
:10479000F089401CADF80200BDF90200B6F9061020
:1047A000884270DC9B4FB7F93C00FCF782FB044663
:1047B000BDF90000B6F90010884220D1F088ADF8AC
:1047C0000600B088ADF80400B7F93C000FE030886F
:1047D000ADF800007088DDE7FCF76BFB0546B0F92B
:1047E0001A0000226946FFF715FEB5F916000028E9
:1047F000F2D1B4F9180000226946FFF70BFEBDF8AC
:104800000000ADF80400B7F93C000CE0FCF751FBE8
:104810000546B0F91A0000226946FFF745FE002858
:10482000EDD1B5F916000028F0D1B4F91800002236
:104830006946FFF739FE0028E1D1B6F90400BDF959
:104840000010ADF80400884204DADDE90001C6E991
:1048500002019AE7B7F93C000AE0FCF72AFB05469B
:10486000B0F91A0000226946FFF765FEB5F9160097
:104870000028F2D1B4F9180000226946FFF75BFE68
:104880003069C82801DD00200CE6DDE90001C6E939
:104890000201012006E670B55D4D6878002806D05B
:1048A0005D4C6069012803DD401E6061002070BD21
:1048B000287820B100202870584800688047206977
:1048C000401C2061FFF74CFF50B1FFF756FC5448E5
:1048D000016819B15048083088472870012070BD20
:1048E0006069E1E72DE9FF41494E8046707838B1B3
:1048F000494D6869401C6861012804DD012029E7F1
:10490000FFF73BFCFAE7434FB7F93C00FCF7D1FA5D
:1049100004464FF0FF302861B07820B1A0680090C5
:10492000E068019006E0207F800732D5D4E90001DD
:10493000CDE90001B8F1000003D00146684600F05F
:1049400079FCB96B89B10A68029249680391B6F99A
:104950001210204611B10846FCF7ABFA02A9FFF786
:10496000C3FB02A9684600F065FCB6F9121019B144
:104970006846FFF7E3FB60B1B7F93C106846FFF704
:10498000DDFB30B1DDE90001C5E90001FFF783FF80
:10499000E0E66869401E68610020DBE610B501F0C2
:1049A000A9F81C490020886310BDFEB505460A69B8
:1049B000888B002A2BD0820729D5154E4FF00F0780
:1049C00001F10804B278521CB270C0040AD5ADF8E7
:1049D000045000970294FFF7E1FF69462846FFF76D
:1049E00094FC11E02046FFF77DFF0BE0ADF804508A
:1049F00000970294FFF7D2FF69462846FFF785FC2F
:104A0000FFF749FF0028F1D1B078401EB070FEBD1D
:104A10003407002084AC0020E0AC0020BC0600205D
:104A2000B80600202DE9F047BC4C81460D46B4F98C
:104A30003C00FCF73EFA08302946804601F031F888
:104A400000281BD0D4E910674246294605F108002A
:104A500000F00DFCDFF8C8822946A8F81290B5F9DD
:104A600000002064B5F9020060644846FFF79DFF2E
:104A70000021A8F81210C4E910670120BDE8F087F2
:104A80002DE9F0470446007F8007F7D5B4F9186098
:104A900004F108091BE03046FCF70BFA0546007FDD
:104AA000C043800711D14946284600F0FAFF60B1A3
:104AB000D4E90270804629463046FFF7B3FF10B1B3
:104AC0002846FFF7DDFFC4E90278B5F91A60002E29
:104AD000E1D1D3E770B54468B0F9002040F6010198
:104AE000A08B0840012803D021461046FFF75DFF48
:104AF0008B48406A002823D02046FFF7C1FFB4F955
:104B00001660B4F91A4019E02046FCF7D2F90546C0
:104B1000007FC043800703D129462046FFF782FF6C
:104B20002846FFF7ADFFB5F91A40002CECD130460E
:104B3000FCF7BFF9B0F91A40B0F91660002EF4D1B5
:104B400070BD10B5764C206A00B18047754800688A
:104B500008B1804710B9FBF782FF08B1012010BDF2
:104B6000607820B1E08810B100F092F8F6E70020FC
:104B700010BD10B5002400E00124FFF7E2FF00287B
:104B8000FAD1204610BD70B5B0F9045004468668CD
:104B90002846FCF78EF902462068172811D004DC5D
:104BA0000E2810D0142809D104E0222811D028287A
:104BB00004D111E031461046FFF7F6FC0020A0605A
:104BC00070BDA56070BD21462846BDE8704001F06B
:104BD000BDBF6FF07040F2E72846BDE870401CE5AD
:104BE00010B5044600680E2802D00F2814D108E042
:104BF000A0684168012913D10068BDE81040FBF7A7
:104C00001ABF47486FF070411C300068884203D0DB
:104C1000FBF75EFFFCF748FC2046BDE81040B2E71A
:104C200010BD3F490120487070473D490020487041
:104C300001F069BB3EB53A4CE078002827D13749EE
:104C40002081A0828863E080A08037490222CDE9DC
:104C5000002140F6FF72029013460146FFF76DFDFA
:104C600004F10A0504F11C0228806FF07041116004
:104C7000FFF7D3FC2D4801F005FE2D4801F002FEA0
:104C8000B5F90000FFF714FB01206070E0703EBD35
:104C90002DE9F041DFF8888096B00125B8F914704D
:104CA0000FB9B8F90870684600F018FF2BE03846D5
:104CB000FCF7FFF80446007F0026800621D5206916
:104CC00078B1394604F10800FFF738FA48B1ADF879
:104CD000507038461594FFF7EBFA14A8FFF7FAFE68
:104CE0000126A08B20F02000A083810402D540F093
:104CF0000401A183B8F80610491EA8F8061006B1F1
:104D00006D1EB4F914700FB1002DD0D1A8F8147035
:104D1000684600F0E7FE16B0BDE8F08184AC0020E4
:104D200034070020AC060020E14B00087807002083
:104D300080070020FFF771BC70B5050021D0FCF79B
:104D4000B8F80446B0F91A0000281AD0217F0907E4
:104D500004D4FCF7AEF8007F000712D4B4F9164073
:104D60002846FFF760FA21462846FFF721FA284631
:104D7000FFF753FC2846BDE870400022014901F0CE
:104D80009BBD70BD354D000810B50C46002808D0FD
:104D9000002C06D0FCF78DF82146BDE81040FFF747
:104DA00003BC10BD01460448B0F9000010B9034827
:104DB000B0F93C00E8E700004607002084AC002082
:104DC0000EB500210291172100916946FFF79DFA67
:104DD000029800B20EBD00000148B0F90000704713
:104DE0003E07002070B50D460026FCF762F8B0F9CA
:104DF000184011E0204600F022F8A84201D12046D8
:104E000070BD29462046FFF7EDFF060006D120467B
:104E1000FCF74FF8B0F91A40002CEBD1304670BDCA
:104E200002004FF0000001D01046DBE7704710B5DC
:104E3000002803D0FCF73DF8B0F9180010BD0EB5FE
:104E4000152100916946FFF760FA02980EBD10B572
:104E5000002803D0FCF72DF8B0F9160010BDFF2193
:104E6000FFF7DEBFFE21FFF7DBBF0EB52322029165
:104E700000926946FFF749FA0EBD000010B5040024
:104E80000CD00E48B0F9000010B90D48B0F93C0044
:104E9000FCF70FF8016821604068606010BD10B534
:104EA0000C46002809D0002C07D0FCF702F8002897
:104EB00003D0016821604068606010BD4607002093
:104EC00084AC0020B0F90410B0F90000081A401CAE
:104ED0007047B0F90610B0F90200081A401C70477C
:104EE00010B500F015F8FBF7E4FFB0F90410B0F9C5
:104EF0000000081A401C10BD10B500F009F8FBF7BF
:104F0000D8FFB0F90610B0F90200081A401C10BD15
:104F1000002801D1FFF720BC70472DE9F04116466B
:104F20000F46054619E02846FBF7C3FF0446324604
:104F3000394600F0A7FD3246394604F1080000F07A
:104F4000A1FDB4F9180032463946FFF7E6FF032108
:104F50002846FFF7EAF9B4F91A50002DE3D1BDE86D
:104F6000F0812DE9FC4116460F46050024D0FBF7E1
:104F7000A0FF04463246D4E90001CDE900013946DC
:104F8000204600F07FFD3246394604F1080000F06B
:104F900079FDB4F9180032463946FFF7BEFF207F8D
:104FA000800705D52046FFF760F96846FFF75DF9F1
:104FB00003212846FFF7B9F9BDE8FC8170B5154615
:104FC0000E4604000BD0FBF774FFB0F90010B0F9E7
:104FD0000200711A2A1A2046BDE87040C1E770BD70
:104FE000BFE7EBE770B50E4605004FF0000406D0B2
:104FF000FBF75FFF046906612846FFF70EFB2046BA
:1050000070BD00002DE9FF4107004FF00000009047
:105010000190029036D01E4CB4F90000874231D086
:10502000ADF80C001F21ADF80E70009110B169466B
:10503000FFF76BF901200290278069463846FFF799
:1050400064F9029E03AC21252EB11CE0694600954F
:105050000294FFF75AF93846FFF7F9FE0700F5D139
:10506000BDF90C70384601F0DBFC28B90BE069464D
:1050700000950294FFF749F93846FFF7E8FE07006C
:10508000F5D100E0012604B03046BDE8F081000013
:10509000440700202DE9F0410D461E460746114603
:1050A000FFF7BEFE04462DB150B931463846FEF733
:1050B00007FD08E001F092FC2CB12046FFF74EF905
:1050C0000120BDE8F0810020FBE70823FE22E1E794
:1050D0000023FF22DEE7FBE7F7E7000010B504003E
:1050E00010D0FBF7E6FE818BCA070BD141F001011E
:1050F000818315480168491C01602046BDE81040C5
:10510000FFF78BBA10BD10B5040010D0FBF7D1FE2D
:10511000818BCA070BD021F0010181830A48016805
:10512000491E01602046BDE81040FFF776BA10BD69
:1051300010B501004FF0000005D00846FBF7B9FE9E
:10514000007F00F0010010BD580700207047704735
:105150002DE9F041984616460C4680B300F00DFC50
:10516000074608F00300012824D0022816D0B4F91D
:105170000050FBF753FF014608F00C0004282BD029
:105180000C281DD0B4F9020035807080EA19521E37
:105190000844B280401EF080BDE8F081B4F90400FC
:1051A000B4F90010401AC01B401C00EBD07001EB9A
:1051B0006005DEE7B4F90400C51B6D1CD9E710E0FB
:1051C000B4F90600B4F90220801A401A401C00EB22
:1051D000D07002EB6000D7E7B4F90600401A401C1B
:1051E000D2E72068306060687060D5E70246002032
:1051F000002905D001EBD17002EB600090FBF1F0CB
:10520000704731B50024009808B905E0641C684671
:1052100000F0CCFC0028F9D1204638BD016811F817
:10522000012B12B10A2A02D002E00120704701606E
:1052300000207047B0F90030B1F90020934200DA45
:105240000280B0F90230B1F90220934200DA4280C4
:10525000B0F90430B1F90420934200DD8280B0F946
:105260000620B1F906108A4200DDC180704770B592
:10527000B1F90030B2F90040A34200DC23460380BC
:10528000B1F90250B2F90240A54200DC2546458042
:10529000B1F90440B2F90460B44200DD34468480C0
:1052A000B1F90660B2F906108E4200DC3146C180C9
:1052B0009C4201DBA94201DA002070BD012070BDD3
:1052C0000B88134403808B889B1A83804B8813447C
:1052D0004380C988891AC18070472DE9F04106468C
:1052E0000F460025B0F9000001F076FE90B1384677
:1052F00000F013F8401C00B2FBF7D7FD040009D002
:10530000FBF7D7FD394602F09BFB3046FBF71EFE4C
:10531000348001252846BDE8F0814FF0FF3120B1EF
:1053200010F8012B491C002AFAD1084670472DE9D4
:10533000F843012A07D0022A27D0BDE8F84347F6F0
:10534000FF7100F0A2BC0026884634463546374639
:105350000090684600F02AFC28B101460A2802D0D5
:10536000202802D004E0254609E0202F00D0254661
:105370000F46FBF78CFE0644464502DD0CB115B125
:1053800016E0641CE5E7254612E000240E4625469B
:10539000009008E0FBF77BFE04440DB1B44207DC4B
:1053A0000A2F05D06D1C684600F000FC0700F1D103
:1053B0002846BDE8F88337B515460098FFF7B7FFD4
:1053C00004460146009800F004FC0099084400904F
:1053D000684600F0EBFB0A2802D0012D06D007E05A
:1053E000641C05E06846641C00F0E0FB2028F9D04E
:1053F00020463EBD10B50446FFF7DDFF01462046BE
:10540000BDE8104000F0E5BB70B50546FBF74DFD6B
:10541000040005D0FBF74DFD2A46002101F0A4FD54
:10542000204670BDB0F90630B0F90420B0F9021082
:10543000B0F90000FCF70CB87CB5204C0546608C38
:10544000B4F8401008446084A08CB4F844100844B8
:10545000A0842846FBF71BFE0146608CADF80000D7
:105460000844401EADF8040000F085FA0146A08C07
:10547000ADF802000844401EADF806006846FFF78C
:1054800031FA04E02846FBF7D7FDFFF704FA0028BD
:10549000F8D10A2D03D0BDF80400401C608434F814
:1054A000220FE18B401A20806088618C401A608056
:1054B0007CBDC1E7014B59849A84BDE784AC0020D0
:1054C00070B50C46054602E02846FFF7F2FF641E61
:1054D000FAD570BD2DE9FC47050055D0FBF79EFDC0
:1054E000374E0746B6F92290FBF7BDFDB18C8046DA
:1054F000A1EB0800B0843CE047F6FF71284600F0BD
:10550000C4FB82460146284600F0D7FB044696F8C5
:105510002C0000F0030001283CD0022836D00020E7
:10552000718C6A46081A7084ADF80000611E084448
:10553000ADF80400B08CADF80200791E0844ADF857
:1055400006005146284600F0CFFBBDF80200B084AB
:105550005146284600F03DFB054428780A281BD018
:105560000D2819D0BDF8000020447084287818B1A7
:105570006D1C28780028BFD1B18C01EB0800B084E5
:10558000B08D20F00300B085BDE8FC8704EBD4703B
:105590004010C5E72046C3E796F82C0000F0030052
:1055A00001280AD0022808D0308C708428780A2874
:1055B000DCD1B08C3844B084D8E7A6F82290F5E767
:1055C00084AC00202DE9F0410446C66886B0174639
:1055D0008846002001F044FD054626B1307910B11F
:1055E00045F0020001E025F0020001F039FD2069DC
:1055F000012658B1D4E902128DE84600039663886B
:105600002288046839464046A04718E0E06801F067
:10561000E0FF28B9E088012801D0002000E01C4804
:10562000A288E388A1680096CDE90410CDE9023292
:105630000196638822883946404600F074FD06B022
:105640002846BDE8F04101F00BBD7CB50646104888
:10565000036C406C5C1885183188601E0844ADF8F6
:105660000400ADF800407188681E0844ADF80600DB
:10567000ADF802506846FFF735F906E02A462146A4
:105680003046FFF79FFFFFF706F90028F6D17CBDF3
:1056900084AC00201CB50A4601466846FFF710FEA0
:1056A0002248BDF8002030F8401F0A44ADF8002021
:1056B000BDF8022080880244ADF80220BDF8042025
:1056C0001144ADF80410BDF806100844ADF806000A
:1056D0006846FFF707F925E0BDF900400AE0BDF98B
:1056E0000210204600F0CCFCBDF90610204600F068
:1056F000C7FCA41CBDF90400A042F0DABDF90240C9
:105700000AE0BDF90000214600F0BAFCBDF9040032
:10571000214600F0B5FCA41CBDF90600A042F0DA59
:10572000FFF7B9F80028D7D11CBD000084AC0020D9
:1057300030B5864D2C680C2C10DA854B210009D031
:1057400003EB410232F9022C824203DB23F81120E1
:10575000491EF5D123F81100641C2C6030BD2DE9E1
:10576000FC5F0F4640F6FF749A4691460646C4F128
:10577000000B00210AE006EB8100B0F90200A04214
:1057800000DA0446584500DD8346491CB942F2DB85
:105790007048006900280DD0B0F90620A2EB0A017C
:1057A000594500DA8B46B0F90210A1EB0A00A0427D
:1057B00000DD0446ABE0654900200546086084E052
:1057C000781E854201DA6A1C00E0002206EB850C97
:1057D00006EB8203BCF90200B3F90210A04240D1EB
:1057E000A14213D136F9222036F9251002EB090027
:1057F000584A01EB090C04EB0A01926C84451368CA
:1058000002DA0246604627E0624625E0B0462846B6
:10581000A4460022A7F1010E0AE008B1401E00E0F4
:10582000781E08EB8003B3F90230634503D1521CA4
:105830007245F2DB2346A34246D036F925001A1BF7
:10584000A1EB040C92EA0C0F08D4424A484404EB42
:105850000A01926C13680246984735E0FFF768FF2B
:1058600032E0A14230D001DBA04203DDA0422BDBBD
:10587000A14229DC88420ADC0246A04224DC084618
:10588000A14221DBBCF90010B3F9003008E00A4660
:10589000A14219DCA04217DBB3F90010BCF90030BB
:1058A000A4EB020C5B1A03FB0CF3002BA0EB020C25
:1058B00002DD03EB6C0302E0A3EB6C035B1C801ABC
:1058C00093FBF0F00844C9E76D1CBD42FFF678AFCA
:1058D00004EB0A00019000208046054612E01C49B6
:1058E000B8F1000F31F91510009107D01949009A4D
:1058F0004844896C4A440B6801999847009888F09D
:1059000001086D1C114909688D42E8DB641C5C4587
:105910007FF751AFBDE8FC9F2DE9F04107460D48E8
:105920000E46016C406C8D18C4180020FEF7DAFF9B
:1059300007E023462A4631463846FFF710FFFEF7B8
:10594000AAFF0028F5D1BDE8F08100006007002023
:10595000F8AC002084AC0020B0F90630B0F9042087
:10596000B0F90210B0F90000FBF73CB8002801D0F4
:10597000FFF718BA704701F0EFBA10B50446FFF709
:10598000CCFC01462046BDE8104000F096B9017DF0
:10599000C07D48437047417DC07D4843704700004B
:1059A00000F00CB800F00EB870B50D4600F00AF823
:1059B0000446284600F002F8204370BD034988845D
:1059C00000207047014948840020704784AC0020C3
:1059D0002DE9FC4107461C4615460E46012001F004
:1059E0003FFB80461048016C406C0F4406440D4458
:1059F0000444ADF80070ADF80450ADF80260ADF8A5
:105A000006406846FEF76EFF07E023462A46314609
:105A1000384600F06AFBFEF73EFF0028F5D140460D
:105A200001F01EFBBDE8FC8184AC002010B500280D
:105A300021D009B30AB3B1F90030B2F90040A34252
:105A400000DD23460380B1F90230B2F90240A342DF
:105A500000DD23464380B1F90430B2F90440A3428B
:105A600000DC23468380B1F90630B2F906108B4280
:105A700000DD1946C18010BD11460A680260496800
:105A8000416010BD00280BD003880B44038083883D
:105A900019448180418811444180C1881144C180EA
:105AA0007047B0F90220B1F906309A4213DCB1F91F
:105AB0000220B0F906309A420DDCB0F90020B1F9AD
:105AC00004309A4207DCB1F90010B0F904008142B9
:105AD00001DC01207047002070470000502204497B
